{
  "contractName": "TwentyFourNFT",
  "abi": [
    {
      "inputs": [
        {
          "internalType": "address",
          "name": "_dev",
          "type": "address"
        }
      ],
      "stateMutability": "nonpayable",
      "type": "constructor"
    },
    {
      "anonymous": false,
      "inputs": [
        {
          "indexed": true,
          "internalType": "address",
          "name": "owner",
          "type": "address"
        },
        {
          "indexed": true,
          "internalType": "address",
          "name": "approved",
          "type": "address"
        },
        {
          "indexed": true,
          "internalType": "uint256",
          "name": "tokenId",
          "type": "uint256"
        }
      ],
      "name": "Approval",
      "type": "event"
    },
    {
      "anonymous": false,
      "inputs": [
        {
          "indexed": true,
          "internalType": "address",
          "name": "owner",
          "type": "address"
        },
        {
          "indexed": true,
          "internalType": "address",
          "name": "operator",
          "type": "address"
        },
        {
          "indexed": false,
          "internalType": "bool",
          "name": "approved",
          "type": "bool"
        }
      ],
      "name": "ApprovalForAll",
      "type": "event"
    },
    {
      "anonymous": false,
      "inputs": [
        {
          "indexed": true,
          "internalType": "address",
          "name": "from",
          "type": "address"
        },
        {
          "indexed": true,
          "internalType": "address",
          "name": "to",
          "type": "address"
        },
        {
          "indexed": true,
          "internalType": "uint256",
          "name": "tokenId",
          "type": "uint256"
        }
      ],
      "name": "Transfer",
      "type": "event"
    },
    {
      "inputs": [
        {
          "internalType": "address",
          "name": "to",
          "type": "address"
        },
        {
          "internalType": "uint256",
          "name": "tokenId",
          "type": "uint256"
        }
      ],
      "name": "approve",
      "outputs": [],
      "stateMutability": "nonpayable",
      "type": "function"
    },
    {
      "inputs": [
        {
          "internalType": "uint256",
          "name": "",
          "type": "uint256"
        }
      ],
      "name": "artist",
      "outputs": [
        {
          "internalType": "address",
          "name": "",
          "type": "address"
        }
      ],
      "stateMutability": "view",
      "type": "function"
    },
    {
      "inputs": [],
      "name": "auctionAddress",
      "outputs": [
        {
          "internalType": "address",
          "name": "",
          "type": "address"
        }
      ],
      "stateMutability": "view",
      "type": "function"
    },
    {
      "inputs": [
        {
          "internalType": "address",
          "name": "owner",
          "type": "address"
        }
      ],
      "name": "balanceOf",
      "outputs": [
        {
          "internalType": "uint256",
          "name": "",
          "type": "uint256"
        }
      ],
      "stateMutability": "view",
      "type": "function"
    },
    {
      "inputs": [
        {
          "internalType": "uint256",
          "name": "",
          "type": "uint256"
        }
      ],
      "name": "burntNFTs",
      "outputs": [
        {
          "internalType": "uint256",
          "name": "",
          "type": "uint256"
        }
      ],
      "stateMutability": "view",
      "type": "function"
    },
    {
      "inputs": [
        {
          "internalType": "uint256",
          "name": "tokenId",
          "type": "uint256"
        }
      ],
      "name": "getApproved",
      "outputs": [
        {
          "internalType": "address",
          "name": "",
          "type": "address"
        }
      ],
      "stateMutability": "view",
      "type": "function"
    },
    {
      "inputs": [],
      "name": "gov",
      "outputs": [
        {
          "internalType": "address",
          "name": "",
          "type": "address"
        }
      ],
      "stateMutability": "view",
      "type": "function"
    },
    {
      "inputs": [
        {
          "internalType": "address",
          "name": "owner",
          "type": "address"
        },
        {
          "internalType": "address",
          "name": "operator",
          "type": "address"
        }
      ],
      "name": "isApprovedForAll",
      "outputs": [
        {
          "internalType": "bool",
          "name": "",
          "type": "bool"
        }
      ],
      "stateMutability": "view",
      "type": "function"
    },
    {
      "inputs": [],
      "name": "name",
      "outputs": [
        {
          "internalType": "string",
          "name": "",
          "type": "string"
        }
      ],
      "stateMutability": "view",
      "type": "function"
    },
    {
      "inputs": [
        {
          "internalType": "uint256",
          "name": "tokenId",
          "type": "uint256"
        }
      ],
      "name": "ownerOf",
      "outputs": [
        {
          "internalType": "address",
          "name": "",
          "type": "address"
        }
      ],
      "stateMutability": "view",
      "type": "function"
    },
    {
      "inputs": [
        {
          "internalType": "address",
          "name": "from",
          "type": "address"
        },
        {
          "internalType": "address",
          "name": "to",
          "type": "address"
        },
        {
          "internalType": "uint256",
          "name": "tokenId",
          "type": "uint256"
        }
      ],
      "name": "safeTransferFrom",
      "outputs": [],
      "stateMutability": "nonpayable",
      "type": "function"
    },
    {
      "inputs": [
        {
          "internalType": "address",
          "name": "from",
          "type": "address"
        },
        {
          "internalType": "address",
          "name": "to",
          "type": "address"
        },
        {
          "internalType": "uint256",
          "name": "tokenId",
          "type": "uint256"
        },
        {
          "internalType": "bytes",
          "name": "_data",
          "type": "bytes"
        }
      ],
      "name": "safeTransferFrom",
      "outputs": [],
      "stateMutability": "nonpayable",
      "type": "function"
    },
    {
      "inputs": [
        {
          "internalType": "address",
          "name": "operator",
          "type": "address"
        },
        {
          "internalType": "bool",
          "name": "approved",
          "type": "bool"
        }
      ],
      "name": "setApprovalForAll",
      "outputs": [],
      "stateMutability": "nonpayable",
      "type": "function"
    },
    {
      "inputs": [],
      "name": "stakingAddress",
      "outputs": [
        {
          "internalType": "address",
          "name": "",
          "type": "address"
        }
      ],
      "stateMutability": "view",
      "type": "function"
    },
    {
      "inputs": [
        {
          "internalType": "bytes4",
          "name": "interfaceId",
          "type": "bytes4"
        }
      ],
      "name": "supportsInterface",
      "outputs": [
        {
          "internalType": "bool",
          "name": "",
          "type": "bool"
        }
      ],
      "stateMutability": "view",
      "type": "function"
    },
    {
      "inputs": [],
      "name": "symbol",
      "outputs": [
        {
          "internalType": "string",
          "name": "",
          "type": "string"
        }
      ],
      "stateMutability": "view",
      "type": "function"
    },
    {
      "inputs": [
        {
          "internalType": "uint256",
          "name": "tokenId",
          "type": "uint256"
        }
      ],
      "name": "tokenURI",
      "outputs": [
        {
          "internalType": "string",
          "name": "",
          "type": "string"
        }
      ],
      "stateMutability": "view",
      "type": "function"
    },
    {
      "inputs": [
        {
          "internalType": "address",
          "name": "from",
          "type": "address"
        },
        {
          "internalType": "address",
          "name": "to",
          "type": "address"
        },
        {
          "internalType": "uint256",
          "name": "tokenId",
          "type": "uint256"
        }
      ],
      "name": "transferFrom",
      "outputs": [],
      "stateMutability": "nonpayable",
      "type": "function"
    },
    {
      "inputs": [
        {
          "internalType": "uint256",
          "name": "_tokenId",
          "type": "uint256"
        }
      ],
      "name": "getArtist",
      "outputs": [
        {
          "internalType": "address",
          "name": "",
          "type": "address"
        }
      ],
      "stateMutability": "view",
      "type": "function"
    },
    {
      "inputs": [
        {
          "internalType": "address",
          "name": "_staking",
          "type": "address"
        }
      ],
      "name": "setStakingAddress",
      "outputs": [],
      "stateMutability": "nonpayable",
      "type": "function"
    },
    {
      "inputs": [
        {
          "internalType": "address",
          "name": "_auction",
          "type": "address"
        }
      ],
      "name": "setAuctionAddress",
      "outputs": [],
      "stateMutability": "nonpayable",
      "type": "function"
    },
    {
      "inputs": [
        {
          "internalType": "string",
          "name": "tokenURI",
          "type": "string"
        },
        {
          "internalType": "uint256",
          "name": "startPrice",
          "type": "uint256"
        }
      ],
      "name": "mint",
      "outputs": [
        {
          "internalType": "bool",
          "name": "",
          "type": "bool"
        }
      ],
      "stateMutability": "nonpayable",
      "type": "function"
    },
    {
      "inputs": [
        {
          "internalType": "uint256",
          "name": "_tokenId",
          "type": "uint256"
        }
      ],
      "name": "revokeNFT",
      "outputs": [],
      "stateMutability": "nonpayable",
      "type": "function"
    },
    {
      "inputs": [
        {
          "internalType": "uint256",
          "name": "_tokenId",
          "type": "uint256"
        }
      ],
      "name": "eraseNFT",
      "outputs": [],
      "stateMutability": "nonpayable",
      "type": "function"
    },
    {
      "inputs": [],
      "name": "clearStoredBurntAddresses",
      "outputs": [],
      "stateMutability": "nonpayable",
      "type": "function"
    }
  ],
  "bytecode": "0x60806040523480156200001157600080fd5b5060405162003bc338038062003bc38339818101604052810190620000379190620001e6565b6040518060400160405280600b81526020017f32346e66742e73746f72650000000000000000000000000000000000000000008152506040518060400160405280600581526020017f32344e46540000000000000000000000000000000000000000000000000000008152508160009080519060200190620000bb9291906200011f565b508060019080519060200190620000d49291906200011f565b50505080600760006101000a81548173ffffffffffffffffffffffffffffffffffffffff021916908373ffffffffffffffffffffffffffffffffffffffff16021790555050620002c5565b8280546200012d9062000246565b90600052602060002090601f0160209004810192826200015157600085556200019d565b82601f106200016c57805160ff19168380011785556200019d565b828001600101855582156200019d579182015b828111156200019c5782518255916020019190600101906200017f565b5b509050620001ac9190620001b0565b5090565b5b80821115620001cb576000816000905550600101620001b1565b5090565b600081519050620001e081620002ab565b92915050565b600060208284031215620001f957600080fd5b60006200020984828501620001cf565b91505092915050565b60006200021f8262000226565b9050919050565b600073ffffffffffffffffffffffffffffffffffffffff82169050919050565b600060028204905060018216806200025f57607f821691505b602082108114156200027657620002756200027c565b5b50919050565b7f4e487b7100000000000000000000000000000000000000000000000000000000600052602260045260246000fd5b620002b68162000212565b8114620002c257600080fd5b50565b6138ee80620002d56000396000f3fe608060405234801561001057600080fd5b50600436106101735760003560e01c80636f4d0490116100de578063b88d4fde11610097578063d7b4be2411610071578063d7b4be241461046e578063e985e9c51461048c578063f4e0d9ac146104bc578063febbcef1146104d857610173565b8063b88d4fde146103f2578063c87b56dd1461040e578063d37d87681461043e57610173565b80636f4d04901461033257806370a082311461033c578063811dd0e21461036c57806393ac36381461039c57806395d89b41146103b8578063a22cb465146103d657610173565b806323b872dd1161013057806323b872dd1461026057806342842e0e1461027c5780634b1b7b84146102985780635476ea9e146102c85780636068f2b9146102e65780636352211e1461030257610173565b806301ffc9a714610178578063056b01ce146101a857806306fdde03146101d8578063081812fc146101f6578063095ea7b31461022657806312d43a5114610242575b600080fd5b610192600480360381019061018d9190612837565b6104f4565b60405161019f91906131bd565b60405180910390f35b6101c260048036038101906101bd9190612889565b6105d6565b6040516101cf91906131bd565b60405180910390f35b6101e061079f565b6040516101ed91906131d8565b60405180910390f35b610210600480360381019061020b91906128dd565b610831565b60405161021d9190613156565b60405180910390f35b610240600480360381019061023b91906127fb565b6108b6565b005b61024a6109ce565b6040516102579190613156565b60405180910390f35b61027a600480360381019061027591906126f5565b6109f4565b005b610296600480360381019061029191906126f5565b610a54565b005b6102b260048036038101906102ad91906128dd565b610a74565b6040516102bf9190613156565b60405180910390f35b6102d0610aa7565b6040516102dd9190613156565b60405180910390f35b61030060048036038101906102fb91906128dd565b610acd565b005b61031c600480360381019061031791906128dd565b610dfd565b6040516103299190613156565b60405180910390f35b61033a610eaf565b005b61035660048036038101906103519190612690565b610f4f565b604051610363919061345a565b60405180910390f35b610386600480360381019061038191906128dd565b611007565b6040516103939190613156565b60405180910390f35b6103b660048036038101906103b19190612690565b611044565b005b6103c0611118565b6040516103cd91906131d8565b60405180910390f35b6103f060048036038101906103eb91906127bf565b6111aa565b005b61040c60048036038101906104079190612744565b61132b565b005b610428600480360381019061042391906128dd565b61138d565b60405161043591906131d8565b60405180910390f35b610458600480360381019061045391906128dd565b6114df565b604051610465919061345a565b60405180910390f35b610476611503565b6040516104839190613156565b60405180910390f35b6104a660048036038101906104a191906126b9565b611529565b6040516104b391906131bd565b60405180910390f35b6104d660048036038101906104d19190612690565b6115bd565b005b6104f260048036038101906104ed91906128dd565b611691565b005b60007f80ac58cd000000000000000000000000000000000000000000000000000000007bffffffffffffffffffffffffffffffffffffffffffffffffffffffff1916827bffffffffffffffffffffffffffffffffffffffffffffffffffffffff191614806105bf57507f5b5e139f000000000000000000000000000000000000000000000000000000007bffffffffffffffffffffffffffffffffffffffffffffffffffffffff1916827bffffffffffffffffffffffffffffffffffffffffffffffffffffffff1916145b806105cf57506105ce8261172d565b5b9050919050565b60006105e2600c611797565b60006105ee600c6117ad565b905033600a600083815260200190815260200160002060006101000a81548173ffffffffffffffffffffffffffffffffffffffff021916908373ffffffffffffffffffffffffffffffffffffffff16021790555061066e600960009054906101000a900473ffffffffffffffffffffffffffffffffffffffff16826117bb565b6106788185611989565b600860009054906101000a900473ffffffffffffffffffffffffffffffffffffffff1673ffffffffffffffffffffffffffffffffffffffff16636e70801c826040518263ffffffff1660e01b81526004016106d3919061345a565b600060405180830381600087803b1580156106ed57600080fd5b505af1158015610701573d6000803e3d6000fd5b50505050600960009054906101000a900473ffffffffffffffffffffffffffffffffffffffff1673ffffffffffffffffffffffffffffffffffffffff16636fc149df82856040518363ffffffff1660e01b8152600401610762929190613475565b600060405180830381600087803b15801561077c57600080fd5b505af1158015610790573d6000803e3d6000fd5b50505050600191505092915050565b6060600080546107ae906136e3565b80601f01602080910402602001604051908101604052809291908181526020018280546107da906136e3565b80156108275780601f106107fc57610100808354040283529160200191610827565b820191906000526020600020905b81548152906001019060200180831161080a57829003601f168201915b5050505050905090565b600061083c826119fd565b61087b576040517f08c379a0000000000000000000000000000000000000000000000000000000008152600401610872906133ba565b60405180910390fd5b6004600083815260200190815260200160002060009054906101000a900473ffffffffffffffffffffffffffffffffffffffff169050919050565b60006108c182610dfd565b90508073ffffffffffffffffffffffffffffffffffffffff168373ffffffffffffffffffffffffffffffffffffffff161415610932576040517f08c379a00000000000000000000000000000000000000000000000000000000081526004016109299061341a565b60405180910390fd5b8073ffffffffffffffffffffffffffffffffffffffff16610951611a69565b73ffffffffffffffffffffffffffffffffffffffff161480610980575061097f8161097a611a69565b611529565b5b6109bf576040517f08c379a00000000000000000000000000000000000000000000000000000000081526004016109b6906132fa565b60405180910390fd5b6109c98383611a71565b505050565b600760009054906101000a900473ffffffffffffffffffffffffffffffffffffffff1681565b610a056109ff611a69565b82611b2a565b610a44576040517f08c379a0000000000000000000000000000000000000000000000000000000008152600401610a3b9061343a565b60405180910390fd5b610a4f838383611c08565b505050565b610a6f8383836040518060200160405280600081525061132b565b505050565b600a6020528060005260406000206000915054906101000a900473ffffffffffffffffffffffffffffffffffffffff1681565b600960009054906101000a900473ffffffffffffffffffffffffffffffffffffffff1681565b80600a600082815260200190815260200160002060009054906101000a900473ffffffffffffffffffffffffffffffffffffffff1673ffffffffffffffffffffffffffffffffffffffff163373ffffffffffffffffffffffffffffffffffffffff1614610b6f576040517f08c379a0000000000000000000000000000000000000000000000000000000008152600401610b66906132da565b60405180910390fd5b600080600860009054906101000a900473ffffffffffffffffffffffffffffffffffffffff1673ffffffffffffffffffffffffffffffffffffffff1663963c9dd3856040518263ffffffff1660e01b8152600401610bcd919061345a565b6040805180830381600087803b158015610be657600080fd5b505af1158015610bfa573d6000803e3d6000fd5b505050506040513d601f19601f82011682018060405250810190610c1e9190612906565b809250819350505060008211610c69576040517f08c379a0000000000000000000000000000000000000000000000000000000008152600401610c609061323a565b60405180910390fd5b428110610cab576040517f08c379a0000000000000000000000000000000000000000000000000000000008152600401610ca29061325a565b60405180910390fd5b610cb484611e64565b600860009054906101000a900473ffffffffffffffffffffffffffffffffffffffff1673ffffffffffffffffffffffffffffffffffffffff16638cd312c8856040518263ffffffff1660e01b8152600401610d0f919061345a565b600060405180830381600087803b158015610d2957600080fd5b505af1158015610d3d573d6000803e3d6000fd5b50505050600860009054906101000a900473ffffffffffffffffffffffffffffffffffffffff1673ffffffffffffffffffffffffffffffffffffffff1663417b8559856040518263ffffffff1660e01b8152600401610d9c919061345a565b600060405180830381600087803b158015610db657600080fd5b505af1158015610dca573d6000803e3d6000fd5b50505050600b84908060018154018082558091505060019003906000526020600020016000909190919091505550505050565b6000806002600084815260200190815260200160002060009054906101000a900473ffffffffffffffffffffffffffffffffffffffff169050600073ffffffffffffffffffffffffffffffffffffffff168173ffffffffffffffffffffffffffffffffffffffff161415610ea6576040517f08c379a0000000000000000000000000000000000000000000000000000000008152600401610e9d9061333a565b60405180910390fd5b80915050919050565b600760009054906101000a900473ffffffffffffffffffffffffffffffffffffffff1673ffffffffffffffffffffffffffffffffffffffff163373ffffffffffffffffffffffffffffffffffffffff1614610f3f576040517f08c379a0000000000000000000000000000000000000000000000000000000008152600401610f36906132da565b60405180910390fd5b600b6000610f4d919061243e565b565b60008073ffffffffffffffffffffffffffffffffffffffff168273ffffffffffffffffffffffffffffffffffffffff161415610fc0576040517f08c379a0000000000000000000000000000000000000000000000000000000008152600401610fb79061331a565b60405180910390fd5b600360008373ffffffffffffffffffffffffffffffffffffffff1673ffffffffffffffffffffffffffffffffffffffff168152602001908152602001600020549050919050565b6000600a600083815260200190815260200160002060009054906101000a900473ffffffffffffffffffffffffffffffffffffffff169050919050565b600760009054906101000a900473ffffffffffffffffffffffffffffffffffffffff1673ffffffffffffffffffffffffffffffffffffffff163373ffffffffffffffffffffffffffffffffffffffff16146110d4576040517f08c379a00000000000000000000000000000000000000000000000000000000081526004016110cb906132da565b60405180910390fd5b80600960006101000a81548173ffffffffffffffffffffffffffffffffffffffff021916908373ffffffffffffffffffffffffffffffffffffffff16021790555050565b606060018054611127906136e3565b80601f0160208091040260200160405190810160405280929190818152602001828054611153906136e3565b80156111a05780601f10611175576101008083540402835291602001916111a0565b820191906000526020600020905b81548152906001019060200180831161118357829003601f168201915b5050505050905090565b6111b2611a69565b73ffffffffffffffffffffffffffffffffffffffff168273ffffffffffffffffffffffffffffffffffffffff161415611220576040517f08c379a00000000000000000000000000000000000000000000000000000000081526004016112179061329a565b60405180910390fd5b806005600061122d611a69565b73ffffffffffffffffffffffffffffffffffffffff1673ffffffffffffffffffffffffffffffffffffffff16815260200190815260200160002060008473ffffffffffffffffffffffffffffffffffffffff1673ffffffffffffffffffffffffffffffffffffffff16815260200190815260200160002060006101000a81548160ff0219169083151502179055508173ffffffffffffffffffffffffffffffffffffffff166112da611a69565b73ffffffffffffffffffffffffffffffffffffffff167f17307eab39ab6107e8899845ad3d59bd9653f200f220920489ca2b5937696c318360405161131f91906131bd565b60405180910390a35050565b61133c611336611a69565b83611b2a565b61137b576040517f08c379a00000000000000000000000000000000000000000000000000000000081526004016113729061343a565b60405180910390fd5b61138784848484611eb7565b50505050565b6060611398826119fd565b6113d7576040517f08c379a00000000000000000000000000000000000000000000000000000000081526004016113ce9061339a565b60405180910390fd5b60006006600084815260200190815260200160002080546113f7906136e3565b80601f0160208091040260200160405190810160405280929190818152602001828054611423906136e3565b80156114705780601f1061144557610100808354040283529160200191611470565b820191906000526020600020905b81548152906001019060200180831161145357829003601f168201915b505050505090506000611481611f13565b90506000815114156114975781925050506114da565b6000825111156114cc5780826040516020016114b4929190613132565b604051602081830303815290604052925050506114da565b6114d584611f2a565b925050505b919050565b600b81815481106114ef57600080fd5b906000526020600020016000915090505481565b600860009054906101000a900473ffffffffffffffffffffffffffffffffffffffff1681565b6000600560008473ffffffffffffffffffffffffffffffffffffffff1673ffffffffffffffffffffffffffffffffffffffff16815260200190815260200160002060008373ffffffffffffffffffffffffffffffffffffffff1673ffffffffffffffffffffffffffffffffffffffff16815260200190815260200160002060009054906101000a900460ff16905092915050565b600760009054906101000a900473ffffffffffffffffffffffffffffffffffffffff1673ffffffffffffffffffffffffffffffffffffffff163373ffffffffffffffffffffffffffffffffffffffff161461164d576040517f08c379a0000000000000000000000000000000000000000000000000000000008152600401611644906132da565b60405180910390fd5b80600860006101000a81548173ffffffffffffffffffffffffffffffffffffffff021916908373ffffffffffffffffffffffffffffffffffffffff16021790555050565b600960009054906101000a900473ffffffffffffffffffffffffffffffffffffffff1673ffffffffffffffffffffffffffffffffffffffff163373ffffffffffffffffffffffffffffffffffffffff1614611721576040517f08c379a0000000000000000000000000000000000000000000000000000000008152600401611718906132da565b60405180910390fd5b61172a81611e64565b50565b60007f01ffc9a7000000000000000000000000000000000000000000000000000000007bffffffffffffffffffffffffffffffffffffffffffffffffffffffff1916827bffffffffffffffffffffffffffffffffffffffffffffffffffffffff1916149050919050565b6001816000016000828254019250508190555050565b600081600001549050919050565b600073ffffffffffffffffffffffffffffffffffffffff168273ffffffffffffffffffffffffffffffffffffffff16141561182b576040517f08c379a00000000000000000000000000000000000000000000000000000000081526004016118229061337a565b60405180910390fd5b611834816119fd565b15611874576040517f08c379a000000000000000000000000000000000000000000000000000000000815260040161186b9061321a565b60405180910390fd5b61188060008383611fd1565b6001600360008473ffffffffffffffffffffffffffffffffffffffff1673ffffffffffffffffffffffffffffffffffffffff16815260200190815260200160002060008282546118d09190613572565b92505081905550816002600083815260200190815260200160002060006101000a81548173ffffffffffffffffffffffffffffffffffffffff021916908373ffffffffffffffffffffffffffffffffffffffff160217905550808273ffffffffffffffffffffffffffffffffffffffff16600073ffffffffffffffffffffffffffffffffffffffff167fddf252ad1be2c89b69c2b068fc378daa952ba7f163c4a11628f55a4df523b3ef60405160405180910390a45050565b611992826119fd565b6119d1576040517f08c379a00000000000000000000000000000000000000000000000000000000081526004016119c89061335a565b60405180910390fd5b806006600084815260200190815260200160002090805190602001906119f892919061245f565b505050565b60008073ffffffffffffffffffffffffffffffffffffffff166002600084815260200190815260200160002060009054906101000a900473ffffffffffffffffffffffffffffffffffffffff1673ffffffffffffffffffffffffffffffffffffffff1614159050919050565b600033905090565b816004600083815260200190815260200160002060006101000a81548173ffffffffffffffffffffffffffffffffffffffff021916908373ffffffffffffffffffffffffffffffffffffffff160217905550808273ffffffffffffffffffffffffffffffffffffffff16611ae483610dfd565b73ffffffffffffffffffffffffffffffffffffffff167f8c5be1e5ebec7d5bd14f71427d1e84f3dd0314c0f7b2291e5b200ac8c7c3b92560405160405180910390a45050565b6000611b35826119fd565b611b74576040517f08c379a0000000000000000000000000000000000000000000000000000000008152600401611b6b906132ba565b60405180910390fd5b6000611b7f83610dfd565b90508073ffffffffffffffffffffffffffffffffffffffff168473ffffffffffffffffffffffffffffffffffffffff161480611bee57508373ffffffffffffffffffffffffffffffffffffffff16611bd684610831565b73ffffffffffffffffffffffffffffffffffffffff16145b80611bff5750611bfe8185611529565b5b91505092915050565b8273ffffffffffffffffffffffffffffffffffffffff16611c2882610dfd565b73ffffffffffffffffffffffffffffffffffffffff1614611c7e576040517f08c379a0000000000000000000000000000000000000000000000000000000008152600401611c75906133da565b60405180910390fd5b600073ffffffffffffffffffffffffffffffffffffffff168273ffffffffffffffffffffffffffffffffffffffff161415611cee576040517f08c379a0000000000000000000000000000000000000000000000000000000008152600401611ce59061327a565b60405180910390fd5b611cf9838383611fd1565b611d04600082611a71565b6001600360008573ffffffffffffffffffffffffffffffffffffffff1673ffffffffffffffffffffffffffffffffffffffff1681526020019081526020016000206000828254611d5491906135f9565b925050819055506001600360008473ffffffffffffffffffffffffffffffffffffffff1673ffffffffffffffffffffffffffffffffffffffff1681526020019081526020016000206000828254611dab9190613572565b92505081905550816002600083815260200190815260200160002060006101000a81548173ffffffffffffffffffffffffffffffffffffffff021916908373ffffffffffffffffffffffffffffffffffffffff160217905550808273ffffffffffffffffffffffffffffffffffffffff168473ffffffffffffffffffffffffffffffffffffffff167fddf252ad1be2c89b69c2b068fc378daa952ba7f163c4a11628f55a4df523b3ef60405160405180910390a4505050565b611e6d81611fd6565b6000600660008381526020019081526020016000208054611e8d906136e3565b905014611eb457600660008281526020019081526020016000206000611eb391906124e5565b5b50565b611ec2848484611c08565b611ece848484846120e7565b611f0d576040517f08c379a0000000000000000000000000000000000000000000000000000000008152600401611f04906131fa565b60405180910390fd5b50505050565b606060405180602001604052806000815250905090565b6060611f35826119fd565b611f74576040517f08c379a0000000000000000000000000000000000000000000000000000000008152600401611f6b906133fa565b60405180910390fd5b6000611f7e611f13565b90506000815111611f9e5760405180602001604052806000815250611fc9565b80611fa88461227e565b604051602001611fb9929190613132565b6040516020818303038152906040525b915050919050565b505050565b6000611fe182610dfd565b9050611fef81600084611fd1565b611ffa600083611a71565b6001600360008373ffffffffffffffffffffffffffffffffffffffff1673ffffffffffffffffffffffffffffffffffffffff168152602001908152602001600020600082825461204a91906135f9565b925050819055506002600083815260200190815260200160002060006101000a81549073ffffffffffffffffffffffffffffffffffffffff021916905581600073ffffffffffffffffffffffffffffffffffffffff168273ffffffffffffffffffffffffffffffffffffffff167fddf252ad1be2c89b69c2b068fc378daa952ba7f163c4a11628f55a4df523b3ef60405160405180910390a45050565b60006121088473ffffffffffffffffffffffffffffffffffffffff1661242b565b15612271578373ffffffffffffffffffffffffffffffffffffffff1663150b7a02612131611a69565b8786866040518563ffffffff1660e01b81526004016121539493929190613171565b602060405180830381600087803b15801561216d57600080fd5b505af192505050801561219e57506040513d601f19601f8201168201806040525081019061219b9190612860565b60015b612221573d80600081146121ce576040519150601f19603f3d011682016040523d82523d6000602084013e6121d3565b606091505b50600081511415612219576040517f08c379a0000000000000000000000000000000000000000000000000000000008152600401612210906131fa565b60405180910390fd5b805181602001fd5b63150b7a0260e01b7bffffffffffffffffffffffffffffffffffffffffffffffffffffffff1916817bffffffffffffffffffffffffffffffffffffffffffffffffffffffff191614915050612276565b600190505b949350505050565b606060008214156122c6576040518060400160405280600181526020017f30000000000000000000000000000000000000000000000000000000000000008152509050612426565b600082905060005b600082146122f85780806122e190613715565b915050600a826122f191906135c8565b91506122ce565b60008167ffffffffffffffff81111561233a577f4e487b7100000000000000000000000000000000000000000000000000000000600052604160045260246000fd5b6040519080825280601f01601f19166020018201604052801561236c5781602001600182028036833780820191505090505b5090505b6000851461241f5760018261238591906135f9565b9150600a85612394919061375e565b60306123a09190613572565b60f81b8183815181106123dc577f4e487b7100000000000000000000000000000000000000000000000000000000600052603260045260246000fd5b60200101907effffffffffffffffffffffffffffffffffffffffffffffffffffffffffffff1916908160001a905350600a8561241891906135c8565b9450612370565b8093505050505b919050565b600080823b905060008111915050919050565b508054600082559060005260206000209081019061245c9190612525565b50565b82805461246b906136e3565b90600052602060002090601f01602090048101928261248d57600085556124d4565b82601f106124a657805160ff19168380011785556124d4565b828001600101855582156124d4579182015b828111156124d35782518255916020019190600101906124b8565b5b5090506124e19190612525565b5090565b5080546124f1906136e3565b6000825580601f106125035750612522565b601f0160209004906000526020600020908101906125219190612525565b5b50565b5b8082111561253e576000816000905550600101612526565b5090565b6000612555612550846134cf565b61349e565b90508281526020810184848401111561256d57600080fd5b6125788482856136a1565b509392505050565b600061259361258e846134ff565b61349e565b9050828152602081018484840111156125ab57600080fd5b6125b68482856136a1565b509392505050565b6000813590506125cd8161385c565b92915050565b6000813590506125e281613873565b92915050565b6000813590506125f78161388a565b92915050565b60008151905061260c8161388a565b92915050565b600082601f83011261262357600080fd5b8135612633848260208601612542565b91505092915050565b600082601f83011261264d57600080fd5b813561265d848260208601612580565b91505092915050565b600081359050612675816138a1565b92915050565b60008151905061268a816138a1565b92915050565b6000602082840312156126a257600080fd5b60006126b0848285016125be565b91505092915050565b600080604083850312156126cc57600080fd5b60006126da858286016125be565b92505060206126eb858286016125be565b9150509250929050565b60008060006060848603121561270a57600080fd5b6000612718868287016125be565b9350506020612729868287016125be565b925050604061273a86828701612666565b9150509250925092565b6000806000806080858703121561275a57600080fd5b6000612768878288016125be565b9450506020612779878288016125be565b935050604061278a87828801612666565b925050606085013567ffffffffffffffff8111156127a757600080fd5b6127b387828801612612565b91505092959194509250565b600080604083850312156127d257600080fd5b60006127e0858286016125be565b92505060206127f1858286016125d3565b9150509250929050565b6000806040838503121561280e57600080fd5b600061281c858286016125be565b925050602061282d85828601612666565b9150509250929050565b60006020828403121561284957600080fd5b6000612857848285016125e8565b91505092915050565b60006020828403121561287257600080fd5b6000612880848285016125fd565b91505092915050565b6000806040838503121561289c57600080fd5b600083013567ffffffffffffffff8111156128b657600080fd5b6128c28582860161263c565b92505060206128d385828601612666565b9150509250929050565b6000602082840312156128ef57600080fd5b60006128fd84828501612666565b91505092915050565b6000806040838503121561291957600080fd5b60006129278582860161267b565b92505060206129388582860161267b565b9150509250929050565b61294b8161362d565b82525050565b61295a8161363f565b82525050565b600061296b8261352f565b6129758185613545565b93506129858185602086016136b0565b61298e8161384b565b840191505092915050565b60006129a48261353a565b6129ae8185613556565b93506129be8185602086016136b0565b6129c78161384b565b840191505092915050565b60006129dd8261353a565b6129e78185613567565b93506129f78185602086016136b0565b80840191505092915050565b6000612a10603283613556565b91507f4552433732313a207472616e7366657220746f206e6f6e20455243373231526560008301527f63656976657220696d706c656d656e74657200000000000000000000000000006020830152604082019050919050565b6000612a76601c83613556565b91507f4552433732313a20746f6b656e20616c7265616479206d696e746564000000006000830152602082019050919050565b6000612ab6602683613556565b91507f43616e6e6f74207265766f6b6520616674657220736f6d656f6e65206861732060008301527f7374616b656400000000000000000000000000000000000000000000000000006020830152604082019050919050565b6000612b1c602783613556565b91507f43616e6e6f74207265766f6b652061667465722061756374696f6e206861732060008301527f73746172746564000000000000000000000000000000000000000000000000006020830152604082019050919050565b6000612b82602483613556565b91507f4552433732313a207472616e7366657220746f20746865207a65726f2061646460008301527f72657373000000000000000000000000000000000000000000000000000000006020830152604082019050919050565b6000612be8601983613556565b91507f4552433732313a20617070726f766520746f2063616c6c6572000000000000006000830152602082019050919050565b6000612c28602c83613556565b91507f4552433732313a206f70657261746f7220717565727920666f72206e6f6e657860008301527f697374656e7420746f6b656e00000000000000000000000000000000000000006020830152604082019050919050565b6000612c8e602883613556565b91507f596f7520646f6e2774206861766520746865207065726d697373696f6e20746f60008301527f20646f20746861740000000000000000000000000000000000000000000000006020830152604082019050919050565b6000612cf4603883613556565b91507f4552433732313a20617070726f76652063616c6c6572206973206e6f74206f7760008301527f6e6572206e6f7220617070726f76656420666f7220616c6c00000000000000006020830152604082019050919050565b6000612d5a602a83613556565b91507f4552433732313a2062616c616e636520717565727920666f7220746865207a6560008301527f726f2061646472657373000000000000000000000000000000000000000000006020830152604082019050919050565b6000612dc0602983613556565b91507f4552433732313a206f776e657220717565727920666f72206e6f6e657869737460008301527f656e7420746f6b656e00000000000000000000000000000000000000000000006020830152604082019050919050565b6000612e26602e83613556565b91507f45524337323155524953746f726167653a2055524920736574206f66206e6f6e60008301527f6578697374656e7420746f6b656e0000000000000000000000000000000000006020830152604082019050919050565b6000612e8c602083613556565b91507f4552433732313a206d696e7420746f20746865207a65726f20616464726573736000830152602082019050919050565b6000612ecc603183613556565b91507f45524337323155524953746f726167653a2055524920717565727920666f722060008301527f6e6f6e6578697374656e7420746f6b656e0000000000000000000000000000006020830152604082019050919050565b6000612f32602c83613556565b91507f4552433732313a20617070726f76656420717565727920666f72206e6f6e657860008301527f697374656e7420746f6b656e00000000000000000000000000000000000000006020830152604082019050919050565b6000612f98602983613556565b91507f4552433732313a207472616e73666572206f6620746f6b656e2074686174206960008301527f73206e6f74206f776e00000000000000000000000000000000000000000000006020830152604082019050919050565b6000612ffe602f83613556565b91507f4552433732314d657461646174613a2055524920717565727920666f72206e6f60008301527f6e6578697374656e7420746f6b656e00000000000000000000000000000000006020830152604082019050919050565b6000613064602183613556565b91507f4552433732313a20617070726f76616c20746f2063757272656e74206f776e6560008301527f72000000000000000000000000000000000000000000000000000000000000006020830152604082019050919050565b60006130ca603183613556565b91507f4552433732313a207472616e736665722063616c6c6572206973206e6f74206f60008301527f776e6572206e6f7220617070726f7665640000000000000000000000000000006020830152604082019050919050565b61312c81613697565b82525050565b600061313e82856129d2565b915061314a82846129d2565b91508190509392505050565b600060208201905061316b6000830184612942565b92915050565b60006080820190506131866000830187612942565b6131936020830186612942565b6131a06040830185613123565b81810360608301526131b28184612960565b905095945050505050565b60006020820190506131d26000830184612951565b92915050565b600060208201905081810360008301526131f28184612999565b905092915050565b6000602082019050818103600083015261321381612a03565b9050919050565b6000602082019050818103600083015261323381612a69565b9050919050565b6000602082019050818103600083015261325381612aa9565b9050919050565b6000602082019050818103600083015261327381612b0f565b9050919050565b6000602082019050818103600083015261329381612b75565b9050919050565b600060208201905081810360008301526132b381612bdb565b9050919050565b600060208201905081810360008301526132d381612c1b565b9050919050565b600060208201905081810360008301526132f381612c81565b9050919050565b6000602082019050818103600083015261331381612ce7565b9050919050565b6000602082019050818103600083015261333381612d4d565b9050919050565b6000602082019050818103600083015261335381612db3565b9050919050565b6000602082019050818103600083015261337381612e19565b9050919050565b6000602082019050818103600083015261339381612e7f565b9050919050565b600060208201905081810360008301526133b381612ebf565b9050919050565b600060208201905081810360008301526133d381612f25565b9050919050565b600060208201905081810360008301526133f381612f8b565b9050919050565b6000602082019050818103600083015261341381612ff1565b9050919050565b6000602082019050818103600083015261343381613057565b9050919050565b60006020820190508181036000830152613453816130bd565b9050919050565b600060208201905061346f6000830184613123565b92915050565b600060408201905061348a6000830185613123565b6134976020830184613123565b9392505050565b6000604051905081810181811067ffffffffffffffff821117156134c5576134c461381c565b5b8060405250919050565b600067ffffffffffffffff8211156134ea576134e961381c565b5b601f19601f8301169050602081019050919050565b600067ffffffffffffffff82111561351a5761351961381c565b5b601f19601f8301169050602081019050919050565b600081519050919050565b600081519050919050565b600082825260208201905092915050565b600082825260208201905092915050565b600081905092915050565b600061357d82613697565b915061358883613697565b9250827fffffffffffffffffffffffffffffffffffffffffffffffffffffffffffffffff038211156135bd576135bc61378f565b5b828201905092915050565b60006135d382613697565b91506135de83613697565b9250826135ee576135ed6137be565b5b828204905092915050565b600061360482613697565b915061360f83613697565b9250828210156136225761362161378f565b5b828203905092915050565b600061363882613677565b9050919050565b60008115159050919050565b60007fffffffff0000000000000000000000000000000000000000000000000000000082169050919050565b600073ffffffffffffffffffffffffffffffffffffffff82169050919050565b6000819050919050565b82818337600083830152505050565b60005b838110156136ce5780820151818401526020810190506136b3565b838111156136dd576000848401525b50505050565b600060028204905060018216806136fb57607f821691505b6020821081141561370f5761370e6137ed565b5b50919050565b600061372082613697565b91507fffffffffffffffffffffffffffffffffffffffffffffffffffffffffffffffff8214156137535761375261378f565b5b600182019050919050565b600061376982613697565b915061377483613697565b925082613784576137836137be565b5b828206905092915050565b7f4e487b7100000000000000000000000000000000000000000000000000000000600052601160045260246000fd5b7f4e487b7100000000000000000000000000000000000000000000000000000000600052601260045260246000fd5b7f4e487b7100000000000000000000000000000000000000000000000000000000600052602260045260246000fd5b7f4e487b7100000000000000000000000000000000000000000000000000000000600052604160045260246000fd5b6000601f19601f8301169050919050565b6138658161362d565b811461387057600080fd5b50565b61387c8161363f565b811461388757600080fd5b50565b6138938161364b565b811461389e57600080fd5b50565b6138aa81613697565b81146138b557600080fd5b5056fea26469706673582212202b7cc72053fa2d40a8be6eb140309e343a6947e0233f754eb36ae3bd96addc8364736f6c63430008000033",
  "immutableReferences": {},
  "source": "// SPDX-License-Identifier: MIT\npragma solidity ^0.8.0;\n\nimport '../node_modules/@openzeppelin/contracts/token/ERC721/extensions/ERC721URIStorage.sol';\nimport '../node_modules/@openzeppelin/contracts/utils/Counters.sol';\n\ninterface Istaking{\n    function startStakePeriod(uint _tokenId) external;\n    function getStakeDetails(uint _tokenId) external returns (uint,uint);\n    function revokeNFTstake(uint _tokenId) external;\n}\ninterface IAuction{\n    function startBidPeriod(uint _tokenId, uint startPrice) external;\n    function revokeNFTBid(uint _tokenId) external ;\n}\n\n/**\n * @notice - This is the NFT contract\n */\ncontract TwentyFourNFT is ERC721URIStorage {\n    using Counters for Counters.Counter;\n    address public gov;\n    address public stakingAddress;\n    address public auctionAddress;\n    mapping (uint => address) public artist;\n    uint[] public burntNFTs;\n    //mapping (uint256 => string) private rawHash; //for rawfileHash only for the owner\n\n     Counters.Counter private _counter;\n    \n    constructor (\n        address _dev   //dev address\n    ) \n        ERC721('24nft.store', '24NFT') \n    {\n        gov = _dev;\n    }\n\n    function getArtist(uint _tokenId) external view returns(address){\n        return artist[_tokenId];\n    }\n\n    function setStakingAddress(address _staking) public onlyGov(){\n        stakingAddress = _staking;\n    }\n    function setAuctionAddress(address _auction) public onlyGov(){\n        auctionAddress = _auction;\n    }\n\n    /** \n     * @dev mint a NFT\n     * @dev tokenURI - URL include ipfs hash\n     */\n    function mint(\n        string memory tokenURI,\n         uint startPrice \n         //string memory rawUri\n         ) public returns (bool) {\n        /// Mint a new NFT\n        _counter.increment();\n        uint256 _id = _counter.current();\n        artist[_id] = msg.sender;\n        _mint(auctionAddress, _id);\n        _setTokenURI(_id, tokenURI);\n        //rawHash[_id] = rawUri;\n        Istaking(stakingAddress).startStakePeriod(_id);\n        IAuction(auctionAddress).startBidPeriod(_id, startPrice);\n        return true;\n    }\n    function revokeNFT(uint _tokenId) external onlyArtist(_tokenId){\n        uint totalStakes;\n        uint endTime;\n        (totalStakes,endTime) = Istaking(stakingAddress).getStakeDetails(_tokenId);\n        require(totalStakes>0,'Cannot revoke after someone has staked');\n        require(endTime<block.timestamp,'Cannot revoke after auction has started');\n        _burn(_tokenId);\n        Istaking(stakingAddress).revokeNFTstake(_tokenId);\n        IAuction(stakingAddress).revokeNFTBid(_tokenId);\n        burntNFTs.push(_tokenId);\n    }\n\n    function eraseNFT(uint _tokenId) external onlyAuction() {\n        _burn(_tokenId);\n    }\n\n    function clearStoredBurntAddresses() external onlyGov(){\n        delete burntNFTs;\n    }\n\n    modifier onlyGov (){\n        require(msg.sender == gov,\"You don't have the permission to do that\");\n        _;\n    }\n    modifier onlyArtist (uint _id){\n        require(msg.sender == artist[_id],\"You don't have the permission to do that\");\n        _;\n    }\n    modifier onlyAuction (){\n        require(msg.sender == auctionAddress,\"You don't have the permission to do that\");\n        _;\n    }\n}",
  "sourcePath": "/home/oem/git/24nft/contracts/TwentyFourNFT.sol",
  "compiler": {
    "name": "solc",
    "version": "0.8.0+commit.c7dfd78e.Emscripten.clang"
  },
  "schemaVersion": "3.4.1",
  "updatedAt": "2021-07-10T16:38:40.899Z",
  "devdoc": {
    "kind": "dev",
    "methods": {
      "approve(address,uint256)": {
        "details": "See {IERC721-approve}."
      },
      "balanceOf(address)": {
        "details": "See {IERC721-balanceOf}."
      },
      "getApproved(uint256)": {
        "details": "See {IERC721-getApproved}."
      },
      "isApprovedForAll(address,address)": {
        "details": "See {IERC721-isApprovedForAll}."
      },
      "mint(string,uint256)": {
        "details": "mint a NFTtokenURI - URL include ipfs hash"
      },
      "name()": {
        "details": "See {IERC721Metadata-name}."
      },
      "ownerOf(uint256)": {
        "details": "See {IERC721-ownerOf}."
      },
      "safeTransferFrom(address,address,uint256)": {
        "details": "See {IERC721-safeTransferFrom}."
      },
      "safeTransferFrom(address,address,uint256,bytes)": {
        "details": "See {IERC721-safeTransferFrom}."
      },
      "setApprovalForAll(address,bool)": {
        "details": "See {IERC721-setApprovalForAll}."
      },
      "supportsInterface(bytes4)": {
        "details": "See {IERC165-supportsInterface}."
      },
      "symbol()": {
        "details": "See {IERC721Metadata-symbol}."
      },
      "tokenURI(uint256)": {
        "details": "See {IERC721Metadata-tokenURI}."
      },
      "transferFrom(address,address,uint256)": {
        "details": "See {IERC721-transferFrom}."
      }
    },
    "version": 1
  },
  "userdoc": {
    "kind": "user",
    "methods": {},
    "notice": "- This is the NFT contract",
    "version": 1
  }
}