{
  "contractName": "TwentyFourNFTBidding",
  "abi": [
    {
      "inputs": [
        {
          "internalType": "address",
          "name": "_matic",
          "type": "address"
        },
        {
          "internalType": "address",
          "name": "_nftContract",
          "type": "address"
        },
        {
          "internalType": "address",
          "name": "_multisig",
          "type": "address"
        }
      ],
      "stateMutability": "nonpayable",
      "type": "constructor"
    },
    {
      "inputs": [
        {
          "internalType": "uint256",
          "name": "_tokenId",
          "type": "uint256"
        },
        {
          "internalType": "uint256",
          "name": "startPrice",
          "type": "uint256"
        }
      ],
      "name": "startBidPeriod",
      "outputs": [],
      "stateMutability": "nonpayable",
      "type": "function"
    },
    {
      "inputs": [
        {
          "internalType": "uint256",
          "name": "_tokenId",
          "type": "uint256"
        },
        {
          "internalType": "uint256",
          "name": "_bid",
          "type": "uint256"
        }
      ],
      "name": "raiseBid",
      "outputs": [],
      "stateMutability": "nonpayable",
      "type": "function"
    },
    {
      "inputs": [
        {
          "internalType": "uint256",
          "name": "_tokenId",
          "type": "uint256"
        }
      ],
      "name": "claimUnusedBack",
      "outputs": [],
      "stateMutability": "nonpayable",
      "type": "function"
    },
    {
      "inputs": [
        {
          "internalType": "uint256",
          "name": "_tokenId",
          "type": "uint256"
        }
      ],
      "name": "claimNft",
      "outputs": [],
      "stateMutability": "nonpayable",
      "type": "function"
    },
    {
      "inputs": [
        {
          "internalType": "uint256",
          "name": "_tokenId",
          "type": "uint256"
        }
      ],
      "name": "claimSoldPrice",
      "outputs": [],
      "stateMutability": "nonpayable",
      "type": "function"
    },
    {
      "inputs": [
        {
          "internalType": "uint256",
          "name": "_tokenId",
          "type": "uint256"
        }
      ],
      "name": "claimSoldPricePatron",
      "outputs": [],
      "stateMutability": "nonpayable",
      "type": "function"
    },
    {
      "inputs": [
        {
          "internalType": "uint256",
          "name": "_tokenId",
          "type": "uint256"
        }
      ],
      "name": "eraseNFT",
      "outputs": [],
      "stateMutability": "nonpayable",
      "type": "function"
    },
    {
      "inputs": [
        {
          "internalType": "uint256",
          "name": "_tokenId",
          "type": "uint256"
        }
      ],
      "name": "revokeNFTBid",
      "outputs": [],
      "stateMutability": "nonpayable",
      "type": "function"
    }
  ],
  "bytecode": "0x60806040523480156200001157600080fd5b506040516200217538038062002175833981810160405281019062000037919062000122565b600160008190555082600260006101000a81548173ffffffffffffffffffffffffffffffffffffffff021916908373ffffffffffffffffffffffffffffffffffffffff16021790555081600160006101000a81548173ffffffffffffffffffffffffffffffffffffffff021916908373ffffffffffffffffffffffffffffffffffffffff16021790555080600360006101000a81548173ffffffffffffffffffffffffffffffffffffffff021916908373ffffffffffffffffffffffffffffffffffffffff160217905550505050620001c6565b6000815190506200011c81620001ac565b92915050565b6000806000606084860312156200013857600080fd5b600062000148868287016200010b565b93505060206200015b868287016200010b565b92505060406200016e868287016200010b565b9150509250925092565b600062000185826200018c565b9050919050565b600073ffffffffffffffffffffffffffffffffffffffff82169050919050565b620001b78162000178565b8114620001c357600080fd5b50565b611f9f80620001d66000396000f3fe608060405234801561001057600080fd5b50600436106100885760003560e01c80636fc149df1161005b5780636fc149df146100fd5780639875082f14610119578063f26a65a614610135578063febbcef11461015157610088565b806324c41b791461008d5780632ec09d39146100a9578063417b8559146100c557806356cb9b2f146100e1575b600080fd5b6100a760048036038101906100a291906115b4565b61016d565b005b6100c360048036038101906100be91906115b4565b610374565b005b6100df60048036038101906100da91906115b4565b61050d565b005b6100fb60048036038101906100f691906115b4565b6105e6565b005b610117600480360381019061011291906115dd565b6108c1565b005b610133600480360381019061012e91906115b4565b6109de565b005b61014f600480360381019061014a91906115dd565b610cab565b005b61016b600480360381019061016691906115b4565b610fde565b005b80600560008281526020019081526020016000206002015442116101c6576040517f08c379a00000000000000000000000000000000000000000000000000000000081526004016101bd90611c78565b60405180910390fd5b60056000838152602001908152602001600020600101546005600084815260200190815260200160002060060160003373ffffffffffffffffffffffffffffffffffffffff1673ffffffffffffffffffffffffffffffffffffffff1681526020019081526020016000205410610271576040517f08c379a000000000000000000000000000000000000000000000000000000000815260040161026890611bb8565b60405180910390fd5b60006005600084815260200190815260200160002060060160003373ffffffffffffffffffffffffffffffffffffffff1673ffffffffffffffffffffffffffffffffffffffff16815260200190815260200160002054905060006005600085815260200190815260200160002060060160003373ffffffffffffffffffffffffffffffffffffffff1673ffffffffffffffffffffffffffffffffffffffff1681526020019081526020016000208190555061036f3382600260009054906101000a900473ffffffffffffffffffffffffffffffffffffffff1673ffffffffffffffffffffffffffffffffffffffff166111659092919063ffffffff16565b505050565b80600560008281526020019081526020016000206002015442116103cd576040517f08c379a00000000000000000000000000000000000000000000000000000000081526004016103c490611c78565b60405180910390fd5b60056000838152602001908152602001600020600101546005600084815260200190815260200160002060060160003373ffffffffffffffffffffffffffffffffffffffff1673ffffffffffffffffffffffffffffffffffffffff1681526020019081526020016000205414610478576040517f08c379a000000000000000000000000000000000000000000000000000000000815260040161046f90611bb8565b60405180910390fd5b600160009054906101000a900473ffffffffffffffffffffffffffffffffffffffff1673ffffffffffffffffffffffffffffffffffffffff166342842e0e3033856040518463ffffffff1660e01b81526004016104d793929190611ab6565b600060405180830381600087803b1580156104f157600080fd5b505af1158015610505573d6000803e3d6000fd5b505050505050565b600160009054906101000a900473ffffffffffffffffffffffffffffffffffffffff1673ffffffffffffffffffffffffffffffffffffffff163373ffffffffffffffffffffffffffffffffffffffff161461059d576040517f08c379a000000000000000000000000000000000000000000000000000000000815260040161059490611bf8565b60405180910390fd5b6005600082815260200190815260200160002060008082016000905560018201600090556002820160009055600382016000905560048201600090556005820160009055505050565b806005600082815260200190815260200160002060020154421161063f576040517f08c379a000000000000000000000000000000000000000000000000000000000815260040161063690611c78565b60405180910390fd5b6000600160009054906101000a900473ffffffffffffffffffffffffffffffffffffffff1673ffffffffffffffffffffffffffffffffffffffff1663d7b4be246040518163ffffffff1660e01b815260040160206040518083038186803b1580156106a957600080fd5b505afa1580156106bd573d6000803e3d6000fd5b505050506040513d601f19601f820116820180604052508101906106e19190611562565b90508073ffffffffffffffffffffffffffffffffffffffff1663f283f18b846040518263ffffffff1660e01b815260040161071c9190611cd8565b60206040518083038186803b15801561073457600080fd5b505afa158015610748573d6000803e3d6000fd5b505050506040513d601f19601f8201168201806040525081019061076c9190611562565b73ffffffffffffffffffffffffffffffffffffffff163373ffffffffffffffffffffffffffffffffffffffff16146107a357600080fd5b60006107e4614e206107d660045460056000898152602001908152602001600020600101546111eb90919063ffffffff16565b61120190919063ffffffff16565b90506108bb8273ffffffffffffffffffffffffffffffffffffffff1663f283f18b866040518263ffffffff1660e01b81526004016108229190611cd8565b60206040518083038186803b15801561083a57600080fd5b505afa15801561084e573d6000803e3d6000fd5b505050506040513d601f19601f820116820180604052508101906108729190611562565b82600260009054906101000a900473ffffffffffffffffffffffffffffffffffffffff1673ffffffffffffffffffffffffffffffffffffffff166111659092919063ffffffff16565b50505050565b600160009054906101000a900473ffffffffffffffffffffffffffffffffffffffff1673ffffffffffffffffffffffffffffffffffffffff163373ffffffffffffffffffffffffffffffffffffffff1614610951576040517f08c379a000000000000000000000000000000000000000000000000000000000815260040161094890611bf8565b60405180910390fd5b6203f480426109609190611d25565b600560008481526020019081526020016000206000018190555080600560008481526020019081526020016000206001018190555060016005600084815260200190815260200160002060050181905550622b8180426109c09190611d25565b60056000848152602001908152602001600020600201819055505050565b8060056000828152602001908152602001600020600201544211610a37576040517f08c379a0000000000000000000000000000000000000000000000000000000008152600401610a2e90611c78565b60405180910390fd5b3373ffffffffffffffffffffffffffffffffffffffff16600160009054906101000a900473ffffffffffffffffffffffffffffffffffffffff1673ffffffffffffffffffffffffffffffffffffffff1663811dd0e2846040518263ffffffff1660e01b8152600401610aa99190611cd8565b60206040518083038186803b158015610ac157600080fd5b505afa158015610ad5573d6000803e3d6000fd5b505050506040513d601f19601f82011682018060405250810190610af99190611562565b73ffffffffffffffffffffffffffffffffffffffff1614610b4f576040517f08c379a0000000000000000000000000000000000000000000000000000000008152600401610b4690611b98565b60405180910390fd5b6000610ba4612710610b96610b7160045461271061121790919063ffffffff16565b60056000888152602001908152602001600020600101546111eb90919063ffffffff16565b61120190919063ffffffff16565b90506000610be7614e20610bd960045460056000898152602001908152602001600020600101546111eb90919063ffffffff16565b61120190919063ffffffff16565b9050610c363383600260009054906101000a900473ffffffffffffffffffffffffffffffffffffffff1673ffffffffffffffffffffffffffffffffffffffff166111659092919063ffffffff16565b610ca5600360009054906101000a900473ffffffffffffffffffffffffffffffffffffffff1682600260009054906101000a900473ffffffffffffffffffffffffffffffffffffffff1673ffffffffffffffffffffffffffffffffffffffff166111659092919063ffffffff16565b50505050565b60026000541415610cf1576040517f08c379a0000000000000000000000000000000000000000000000000000000008152600401610ce890611cb8565b60405180910390fd5b600260008190555081600560008281526020019081526020016000206000015442118015610d35575060016005600083815260200190815260200160002060050154145b610d74576040517f08c379a0000000000000000000000000000000000000000000000000000000008152600401610d6b90611b78565b60405180910390fd5b60056000828152602001908152602001600020600201544210610dcc576040517f08c379a0000000000000000000000000000000000000000000000000000000008152600401610dc390611b38565b60405180910390fd5b60056000848152602001908152602001600020600101548211610e24576040517f08c379a0000000000000000000000000000000000000000000000000000000008152600401610e1b90611c38565b60405180910390fd5b600060056000858152602001908152602001600020600401541415610e715762093a8042610e529190611d25565b6005600085815260200190815260200160002060020181905550610ea2565b62015180600560008581526020019081526020016000206002016000828254610e9a9190611d25565b925050819055505b610ef1333084600260009054906101000a900473ffffffffffffffffffffffffffffffffffffffff1673ffffffffffffffffffffffffffffffffffffffff1661122d909392919063ffffffff16565b81600560008581526020019081526020016000206001018190555081600560008581526020019081526020016000206003016000828254610f329190611d25565b925050819055506001600560008581526020019081526020016000206004016000828254610f609190611d25565b92505081905550816005600085815260200190815260200160002060060160003373ffffffffffffffffffffffffffffffffffffffff1673ffffffffffffffffffffffffffffffffffffffff1681526020019081526020016000206000828254610fca9190611d25565b925050819055505060016000819055505050565b60056000828152602001908152602001600020600201544210611036576040517f08c379a000000000000000000000000000000000000000000000000000000000815260040161102d90611b58565b60405180910390fd5b600060056000838152602001908152602001600020600401541461108f576040517f08c379a000000000000000000000000000000000000000000000000000000000815260040161108690611c18565b60405180910390fd5b600160009054906101000a900473ffffffffffffffffffffffffffffffffffffffff1673ffffffffffffffffffffffffffffffffffffffff1663febbcef1826040518263ffffffff1660e01b81526004016110ea9190611cd8565b600060405180830381600087803b15801561110457600080fd5b505af1158015611118573d6000803e3d6000fd5b505050506005600082815260200190815260200160002060008082016000905560018201600090556002820160009055600382016000905560048201600090556005820160009055505050565b6111e68363a9059cbb60e01b8484604051602401611184929190611aed565b604051602081830303815290604052907bffffffffffffffffffffffffffffffffffffffffffffffffffffffff19166020820180517bffffffffffffffffffffffffffffffffffffffffffffffffffffffff83818316178352505050506112b6565b505050565b600081836111f99190611dac565b905092915050565b6000818361120f9190611d7b565b905092915050565b600081836112259190611e06565b905092915050565b6112b0846323b872dd60e01b85858560405160240161124e93929190611ab6565b604051602081830303815290604052907bffffffffffffffffffffffffffffffffffffffffffffffffffffffff19166020820180517bffffffffffffffffffffffffffffffffffffffffffffffffffffffff83818316178352505050506112b6565b50505050565b6000611318826040518060400160405280602081526020017f5361666545524332303a206c6f772d6c6576656c2063616c6c206661696c65648152508573ffffffffffffffffffffffffffffffffffffffff1661137d9092919063ffffffff16565b90506000815111156113785780806020019051810190611338919061158b565b611377576040517f08c379a000000000000000000000000000000000000000000000000000000000815260040161136e90611c98565b60405180910390fd5b5b505050565b606061138c8484600085611395565b90509392505050565b6060824710156113da576040517f08c379a00000000000000000000000000000000000000000000000000000000081526004016113d190611bd8565b60405180910390fd5b6113e3856114a9565b611422576040517f08c379a000000000000000000000000000000000000000000000000000000000815260040161141990611c58565b60405180910390fd5b6000808673ffffffffffffffffffffffffffffffffffffffff16858760405161144b9190611a9f565b60006040518083038185875af1925050503d8060008114611488576040519150601f19603f3d011682016040523d82523d6000602084013e61148d565b606091505b509150915061149d8282866114bc565b92505050949350505050565b600080823b905060008111915050919050565b606083156114cc5782905061151c565b6000835111156114df5782518084602001fd5b816040517f08c379a00000000000000000000000000000000000000000000000000000000081526004016115139190611b16565b60405180910390fd5b9392505050565b60008151905061153281611f24565b92915050565b60008151905061154781611f3b565b92915050565b60008135905061155c81611f52565b92915050565b60006020828403121561157457600080fd5b600061158284828501611523565b91505092915050565b60006020828403121561159d57600080fd5b60006115ab84828501611538565b91505092915050565b6000602082840312156115c657600080fd5b60006115d48482850161154d565b91505092915050565b600080604083850312156115f057600080fd5b60006115fe8582860161154d565b925050602061160f8582860161154d565b9150509250929050565b61162281611e3a565b82525050565b600061163382611cf3565b61163d8185611d09565b935061164d818560208601611e82565b80840191505092915050565b600061166482611cfe565b61166e8185611d14565b935061167e818560208601611e82565b61168781611f13565b840191505092915050565b600061169f601283611d14565b91507f41756374696f6e2068617320656e6465642000000000000000000000000000006000830152602082019050919050565b60006116df601183611d14565b91507f6c657373207468616e20333020646179730000000000000000000000000000006000830152602082019050919050565b600061171f601783611d14565b91507f41756374696f6e206e6f742079657420737461727465640000000000000000006000830152602082019050919050565b600061175f601683611d14565b91507f596f7520617265206e6f74204e465420417274697374000000000000000000006000830152602082019050919050565b600061179f602283611d14565b91507f63616e6e6f7420636c61696d207768617420796f7520646f6e7420686176652060008301527f78440000000000000000000000000000000000000000000000000000000000006020830152604082019050919050565b6000611805602683611d14565b91507f416464726573733a20696e73756666696369656e742062616c616e636520666f60008301527f722063616c6c00000000000000000000000000000000000000000000000000006020830152604082019050919050565b600061186b602883611d14565b91507f596f7520646f6e2774206861766520746865207065726d697373696f6e20746f60008301527f20646f20746861740000000000000000000000000000000000000000000000006020830152604082019050919050565b60006118d1601783611d14565b91507f536f6d656f6e65206861732042696420616c72656164790000000000000000006000830152602082019050919050565b6000611911602c83611d14565b91507f506c65617365207261697365207468652062696420686967686572207468616e60008301527f2063757272656e742062696400000000000000000000000000000000000000006020830152604082019050919050565b6000611977601d83611d14565b91507f416464726573733a2063616c6c20746f206e6f6e2d636f6e74726163740000006000830152602082019050919050565b60006119b7601983611d14565b91507f41756374696f6e207374696c6c2069732070726f6772657373000000000000006000830152602082019050919050565b60006119f7602a83611d14565b91507f5361666545524332303a204552433230206f7065726174696f6e20646964206e60008301527f6f742073756363656564000000000000000000000000000000000000000000006020830152604082019050919050565b6000611a5d601f83611d14565b91507f5265656e7472616e637947756172643a207265656e7472616e742063616c6c006000830152602082019050919050565b611a9981611e78565b82525050565b6000611aab8284611628565b915081905092915050565b6000606082019050611acb6000830186611619565b611ad86020830185611619565b611ae56040830184611a90565b949350505050565b6000604082019050611b026000830185611619565b611b0f6020830184611a90565b9392505050565b60006020820190508181036000830152611b308184611659565b905092915050565b60006020820190508181036000830152611b5181611692565b9050919050565b60006020820190508181036000830152611b71816116d2565b9050919050565b60006020820190508181036000830152611b9181611712565b9050919050565b60006020820190508181036000830152611bb181611752565b9050919050565b60006020820190508181036000830152611bd181611792565b9050919050565b60006020820190508181036000830152611bf1816117f8565b9050919050565b60006020820190508181036000830152611c118161185e565b9050919050565b60006020820190508181036000830152611c31816118c4565b9050919050565b60006020820190508181036000830152611c5181611904565b9050919050565b60006020820190508181036000830152611c718161196a565b9050919050565b60006020820190508181036000830152611c91816119aa565b9050919050565b60006020820190508181036000830152611cb1816119ea565b9050919050565b60006020820190508181036000830152611cd181611a50565b9050919050565b6000602082019050611ced6000830184611a90565b92915050565b600081519050919050565b600081519050919050565b600081905092915050565b600082825260208201905092915050565b6000611d3082611e78565b9150611d3b83611e78565b9250827fffffffffffffffffffffffffffffffffffffffffffffffffffffffffffffffff03821115611d7057611d6f611eb5565b5b828201905092915050565b6000611d8682611e78565b9150611d9183611e78565b925082611da157611da0611ee4565b5b828204905092915050565b6000611db782611e78565b9150611dc283611e78565b9250817fffffffffffffffffffffffffffffffffffffffffffffffffffffffffffffffff0483118215151615611dfb57611dfa611eb5565b5b828202905092915050565b6000611e1182611e78565b9150611e1c83611e78565b925082821015611e2f57611e2e611eb5565b5b828203905092915050565b6000611e4582611e58565b9050919050565b60008115159050919050565b600073ffffffffffffffffffffffffffffffffffffffff82169050919050565b6000819050919050565b60005b83811015611ea0578082015181840152602081019050611e85565b83811115611eaf576000848401525b50505050565b7f4e487b7100000000000000000000000000000000000000000000000000000000600052601160045260246000fd5b7f4e487b7100000000000000000000000000000000000000000000000000000000600052601260045260246000fd5b6000601f19601f8301169050919050565b611f2d81611e3a565b8114611f3857600080fd5b50565b611f4481611e4c565b8114611f4f57600080fd5b50565b611f5b81611e78565b8114611f6657600080fd5b5056fea264697066735822122061f515099293ab9248267a94e3bd33648e288b521567968cf1d273578730aebc64736f6c63430008000033",
  "immutableReferences": {},
  "source": "// SPDX-License-Identifier: MIT\npragma solidity ^0.8.0;\n\nimport '../node_modules/@openzeppelin/contracts/token/ERC20/utils/SafeERC20.sol';\nimport '../node_modules/@openzeppelin/contracts/token/ERC721/extensions/IERC721Metadata.sol';\nimport '../node_modules/@openzeppelin/contracts/token/ERC20/IERC20.sol';\nimport '../node_modules/@openzeppelin/contracts/security/ReentrancyGuard.sol';\nimport '../node_modules/@openzeppelin/contracts/token/ERC721/IERC721.sol';\nimport '../node_modules/@openzeppelin/contracts/utils/math/SafeMath.sol';\n\ninterface Inft {\n    function eraseNFT(uint _tokenId) external;\n    function getArtist(uint _tokenId) external view returns (address);\n    function stakingAddress() external view returns (address);\n}\ninterface Istaking{\n    function getPaymentSplitter(uint _tokenId) external view returns(address);\n}\n\n/**\n * @notice - This is the NFT contract\n */\ncontract TwentyFourNFTBidding is ReentrancyGuard{\n    using SafeERC20 for IERC20;\n    using SafeMath for uint;\n    address nftContract;\n    IERC20 Matic;\n    address platform;\n    uint Fee; // input as fee*100 ex. if fee is 1% Fee = 1*100 = 100\n\n    struct BidDetails {\n        uint startTime;\n        uint highestBid;\n        uint endTime;\n        uint totalBidAmount;\n        uint totalBids;\n        uint exists;\n        mapping(address => uint) userBid;\n    }\n    mapping (uint => BidDetails) idToBid;\n\n    constructor(address _matic,address _nftContract , address _multisig){\n        Matic = IERC20(_matic);\n        nftContract = _nftContract;\n        platform = _multisig;\n    }\n    function startBidPeriod(uint _tokenId, uint startPrice) external onlyContract(){\n        idToBid[_tokenId].startTime = block.timestamp+259200; // 3 days\n        idToBid[_tokenId].highestBid = startPrice;\n        idToBid[_tokenId].exists = 1;\n        idToBid[_tokenId].endTime = block.timestamp+2851200; // 30 + 3 days\n    }\n\n    function raiseBid(uint256 _tokenId, uint256 _bid) public nonReentrant() bidPeriod(_tokenId) {\n        require(_bid>idToBid[_tokenId].highestBid,'Please raise the bid higher than current bid');\n        if(idToBid[_tokenId].totalBids==0)\n        {\n            idToBid[_tokenId].endTime = block.timestamp + 604800;\n        }\n        else{\n            idToBid[_tokenId].endTime +=86400; //24 hours\n        }\n        Matic.safeTransferFrom(msg.sender, address(this), _bid);\n        idToBid[_tokenId].highestBid = _bid;\n        idToBid[_tokenId].totalBidAmount += _bid;\n        idToBid[_tokenId].totalBids +=1;\n        idToBid[_tokenId].userBid[msg.sender] += _bid;\n    }\n\n    function claimUnusedBack(uint256 _tokenId) public bidEnd(_tokenId) {\n        require(idToBid[_tokenId].userBid[msg.sender]<idToBid[_tokenId].highestBid,'cannot claim what you dont have xD');\n        uint amount = idToBid[_tokenId].userBid[msg.sender];\n        idToBid[_tokenId].userBid[msg.sender] = 0;\n        Matic.safeTransfer(msg.sender, amount);\n    }\n\n    function claimNft(uint _tokenId) public bidEnd(_tokenId) {\n        require(idToBid[_tokenId].userBid[msg.sender]==idToBid[_tokenId].highestBid,'cannot claim what you dont have xD');\n        IERC721(nftContract).safeTransferFrom(address(this), msg.sender, _tokenId);\n    }\n\n    function claimSoldPrice(uint _tokenId) public bidEnd(_tokenId){\n        require(Inft(nftContract).getArtist(_tokenId) == msg.sender,'You are not NFT Artist');\n        uint amount1 = idToBid[_tokenId].highestBid.mul(uint(10000).sub(Fee)).div(10000);\n        uint amount2 = idToBid[_tokenId].highestBid.mul((Fee)).div(20000);\n        Matic.safeTransfer(msg.sender,amount1);\n        Matic.safeTransfer(platform,amount2);\n    }\n\n    function claimSoldPricePatron(uint _tokenId) external bidEnd(_tokenId) {\n        address stakingAddress = Inft(nftContract).stakingAddress();\n        require(msg.sender == Istaking(stakingAddress).getPaymentSplitter(_tokenId));\n        uint amount = idToBid[_tokenId].highestBid.mul((Fee)).div(20000);\n        Matic.safeTransfer(Istaking(stakingAddress).getPaymentSplitter(_tokenId), amount);\n    }\n    \n    function eraseNFT(uint _tokenId) public{\n        require(block.timestamp<idToBid[_tokenId].endTime,'less than 30 days');\n        require(idToBid[_tokenId].totalBids==0,'Someone has Bid already');\n        Inft(nftContract).eraseNFT(_tokenId);\n        delete idToBid[_tokenId];\n    }\n\n    function revokeNFTBid(uint _tokenId) external onlyContract(){\n        delete idToBid[_tokenId];\n    }\n\n    modifier onlyContract (){\n        require(msg.sender == nftContract,\"You don't have the permission to do that\");\n        _;\n    }\n    modifier bidPeriod (uint _tokenId) {\n        require(block.timestamp>idToBid[_tokenId].startTime && idToBid[_tokenId].exists == 1,\"Auction not yet started\");\n        require(block.timestamp<idToBid[_tokenId].endTime, \"Auction has ended \");\n        _;\n    }\n    modifier bidEnd (uint _tokenId) {\n        require(block.timestamp>idToBid[_tokenId].endTime,'Auction still is progress');\n        _;\n    }\n}",
  "sourcePath": "/home/oem/git/24nft/contracts/bidding.sol",
  "compiler": {
    "name": "solc",
    "version": "0.8.0+commit.c7dfd78e.Emscripten.clang"
  },
  "schemaVersion": "3.4.1",
  "updatedAt": "2021-07-10T16:38:40.925Z",
  "devdoc": {
    "kind": "dev",
    "methods": {},
    "version": 1
  },
  "userdoc": {
    "kind": "user",
    "methods": {},
    "notice": "- This is the NFT contract",
    "version": 1
  }
}