{
  "contractName": "TwentyFourNFTStaking",
  "abi": [
    {
      "inputs": [
        {
          "internalType": "address",
          "name": "_usdc",
          "type": "address"
        },
        {
          "internalType": "address",
          "name": "_matic",
          "type": "address"
        },
        {
          "internalType": "address",
          "name": "_nftContract",
          "type": "address"
        }
      ],
      "stateMutability": "nonpayable",
      "type": "constructor"
    },
    {
      "inputs": [
        {
          "internalType": "uint256",
          "name": "_tokenId",
          "type": "uint256"
        }
      ],
      "name": "getPaymentSplitter",
      "outputs": [
        {
          "internalType": "address",
          "name": "",
          "type": "address"
        }
      ],
      "stateMutability": "view",
      "type": "function"
    },
    {
      "inputs": [
        {
          "internalType": "uint256",
          "name": "_tokenId",
          "type": "uint256"
        },
        {
          "internalType": "uint256",
          "name": "amount",
          "type": "uint256"
        },
        {
          "internalType": "bool",
          "name": "deFi",
          "type": "bool"
        }
      ],
      "name": "stake",
      "outputs": [],
      "stateMutability": "nonpayable",
      "type": "function"
    },
    {
      "inputs": [
        {
          "internalType": "uint256",
          "name": "_tokenId",
          "type": "uint256"
        },
        {
          "internalType": "uint256",
          "name": "amount",
          "type": "uint256"
        }
      ],
      "name": "unstake",
      "outputs": [],
      "stateMutability": "nonpayable",
      "type": "function"
    },
    {
      "inputs": [
        {
          "internalType": "uint256",
          "name": "_tokenId",
          "type": "uint256"
        }
      ],
      "name": "startStakePeriod",
      "outputs": [],
      "stateMutability": "nonpayable",
      "type": "function"
    },
    {
      "inputs": [
        {
          "internalType": "uint256",
          "name": "_tokenId",
          "type": "uint256"
        }
      ],
      "name": "revokeNFTstake",
      "outputs": [],
      "stateMutability": "nonpayable",
      "type": "function"
    },
    {
      "inputs": [
        {
          "internalType": "uint256",
          "name": "_tokenId",
          "type": "uint256"
        }
      ],
      "name": "getStakeDetails",
      "outputs": [
        {
          "internalType": "uint256",
          "name": "",
          "type": "uint256"
        },
        {
          "internalType": "uint256",
          "name": "",
          "type": "uint256"
        }
      ],
      "stateMutability": "view",
      "type": "function"
    }
  ],
  "bytecode": "0x60806040523480156200001157600080fd5b50604051620039a5380380620039a5833981810160405281019062000037919062000119565b826000806101000a81548173ffffffffffffffffffffffffffffffffffffffff021916908373ffffffffffffffffffffffffffffffffffffffff16021790555081600160006101000a81548173ffffffffffffffffffffffffffffffffffffffff021916908373ffffffffffffffffffffffffffffffffffffffff16021790555080600260006101000a81548173ffffffffffffffffffffffffffffffffffffffff021916908373ffffffffffffffffffffffffffffffffffffffff160217905550505050620001bd565b6000815190506200011381620001a3565b92915050565b6000806000606084860312156200012f57600080fd5b60006200013f8682870162000102565b9350506020620001528682870162000102565b9250506040620001658682870162000102565b9150509250925092565b60006200017c8262000183565b9050919050565b600073ffffffffffffffffffffffffffffffffffffffff82169050919050565b620001ae816200016f565b8114620001ba57600080fd5b50565b6137d880620001cd6000396000f3fe60806040523480156200001157600080fd5b50600436106200006a5760003560e01c8063561b2463146200006f5780636e70801c146200008f5780638cd312c814620000af578063963c9dd314620000cf5780639e2c8a5b1462000106578063f283f18b1462000126575b600080fd5b6200008d600480360381019062000087919062000dc6565b6200015c565b005b620000ad6004803603810190620000a7919062000d59565b6200051c565b005b620000cd6004803603810190620000c7919062000d59565b620005f9565b005b620000ed6004803603810190620000e7919062000d59565b620006e4565b604051620000fd929190620013b6565b60405180910390f35b6200012460048036038101906200011e919062000d85565b6200077a565b005b6200014460048036038101906200013e919062000d59565b62000983565b604051620001539190620011ae565b60405180910390f35b6001600360008581526020019081526020016000206003015414620001b8576040517f08c379a0000000000000000000000000000000000000000000000000000000008152600401620001af9062001350565b60405180910390fd5b4260036000858152602001908152602001600020600001541062000213576040517f08c379a00000000000000000000000000000000000000000000000000000000081526004016200020a90620012ea565b60405180910390fd5b6000821162000259576040517f08c379a000000000000000000000000000000000000000000000000000000000815260040162000250906200130c565b60405180910390fd5b6000600360008581526020019081526020016000206002015414156200034f57338260008054906101000a900473ffffffffffffffffffffffffffffffffffffffff16600160009054906101000a900473ffffffffffffffffffffffffffffffffffffffff16604051620002cd9062000cda565b620002dc949392919062001235565b604051809103906000f080158015620002f9573d6000803e3d6000fd5b506003600085815260200190815260200160002060040160006101000a81548173ffffffffffffffffffffffffffffffffffffffff021916908373ffffffffffffffffffffffffffffffffffffffff1602179055505b6003600084815260200190815260200160002060040160009054906101000a900473ffffffffffffffffffffffffffffffffffffffff1673ffffffffffffffffffffffffffffffffffffffff166318f9b02333846040518363ffffffff1660e01b8152600401620003c292919062001208565b600060405180830381600087803b158015620003dd57600080fd5b505af1158015620003f2573d6000803e3d6000fd5b505050506200047b336003600086815260200190815260200160002060040160009054906101000a900473ffffffffffffffffffffffffffffffffffffffff168460008054906101000a900473ffffffffffffffffffffffffffffffffffffffff1673ffffffffffffffffffffffffffffffffffffffff16620009c3909392919063ffffffff16565b816003600085815260200190815260200160002060010160003373ffffffffffffffffffffffffffffffffffffffff1673ffffffffffffffffffffffffffffffffffffffff1681526020019081526020016000206000828254620004e0919062001415565b92505081905550600160036000858152602001908152602001600020600201600082825462000510919062001415565b92505081905550505050565b600260009054906101000a900473ffffffffffffffffffffffffffffffffffffffff1673ffffffffffffffffffffffffffffffffffffffff163373ffffffffffffffffffffffffffffffffffffffff1614620005af576040517f08c379a0000000000000000000000000000000000000000000000000000000008152600401620005a6906200132e565b60405180910390fd5b6203f48042620005c0919062001415565b60036000838152602001908152602001600020600001819055506001600360008381526020019081526020016000206003018190555050565b600260009054906101000a900473ffffffffffffffffffffffffffffffffffffffff1673ffffffffffffffffffffffffffffffffffffffff163373ffffffffffffffffffffffffffffffffffffffff16146200068c576040517f08c379a000000000000000000000000000000000000000000000000000000000815260040162000683906200132e565b60405180910390fd5b60036000828152602001908152602001600020600080820160009055600282016000905560038201600090556004820160006101000a81549073ffffffffffffffffffffffffffffffffffffffff0219169055505050565b600080600160036000858152602001908152602001600020600301541462000743576040517f08c379a00000000000000000000000000000000000000000000000000000000081526004016200073a9062001350565b60405180910390fd5b6003600084815260200190815260200160002060020154600360008581526020019081526020016000206000015491509150915091565b42600360008481526020019081526020016000206000015410620007d5576040517f08c379a0000000000000000000000000000000000000000000000000000000008152600401620007cc90620012a6565b60405180910390fd5b806003600084815260200190815260200160002060010160003373ffffffffffffffffffffffffffffffffffffffff1673ffffffffffffffffffffffffffffffffffffffff1681526020019081526020016000205410156200086e576040517f08c379a000000000000000000000000000000000000000000000000000000000815260040162000865906200130c565b60405180910390fd5b6003600083815260200190815260200160002060040160009054906101000a900473ffffffffffffffffffffffffffffffffffffffff1673ffffffffffffffffffffffffffffffffffffffff166319165587336040518263ffffffff1660e01b8152600401620008df9190620011ae565b600060405180830381600087803b158015620008fa57600080fd5b505af11580156200090f573d6000803e3d6000fd5b50505050806003600084815260200190815260200160002060010160003373ffffffffffffffffffffffffffffffffffffffff1673ffffffffffffffffffffffffffffffffffffffff168152602001908152602001600020600082825462000978919062001472565b925050819055505050565b60006003600083815260200190815260200160002060040160009054906101000a900473ffffffffffffffffffffffffffffffffffffffff169050919050565b62000a4a846323b872dd60e01b858585604051602401620009e793929190620011cb565b604051602081830303815290604052907bffffffffffffffffffffffffffffffffffffffffffffffffffffffff19166020820180517bffffffffffffffffffffffffffffffffffffffffffffffffffffffff838183161783525050505062000a50565b50505050565b600062000ab4826040518060400160405280602081526020017f5361666545524332303a206c6f772d6c6576656c2063616c6c206661696c65648152508573ffffffffffffffffffffffffffffffffffffffff1662000b1f9092919063ffffffff16565b905060008151111562000b1a578080602001905181019062000ad7919062000d2d565b62000b19576040517f08c379a000000000000000000000000000000000000000000000000000000000815260040162000b109062001394565b60405180910390fd5b5b505050565b606062000b30848460008562000b39565b90509392505050565b60608247101562000b81576040517f08c379a000000000000000000000000000000000000000000000000000000000815260040162000b7890620012c8565b60405180910390fd5b62000b8c8562000c5b565b62000bce576040517f08c379a000000000000000000000000000000000000000000000000000000000815260040162000bc59062001372565b60405180910390fd5b6000808673ffffffffffffffffffffffffffffffffffffffff16858760405162000bf9919062001195565b60006040518083038185875af1925050503d806000811462000c38576040519150601f19603f3d011682016040523d82523d6000602084013e62000c3d565b606091505b509150915062000c4f82828662000c6e565b92505050949350505050565b600080823b905060008111915050919050565b6060831562000c805782905062000cd3565b60008351111562000c945782518084602001fd5b816040517f08c379a000000000000000000000000000000000000000000000000000000000815260040162000cca919062001282565b60405180910390fd5b9392505050565b6121d980620015ca83390190565b60008135905062000cf98162001595565b92915050565b60008151905062000d108162001595565b92915050565b60008135905062000d2781620015af565b92915050565b60006020828403121562000d4057600080fd5b600062000d508482850162000cff565b91505092915050565b60006020828403121562000d6c57600080fd5b600062000d7c8482850162000d16565b91505092915050565b6000806040838503121562000d9957600080fd5b600062000da98582860162000d16565b925050602062000dbc8582860162000d16565b9150509250929050565b60008060006060848603121562000ddc57600080fd5b600062000dec8682870162000d16565b935050602062000dff8682870162000d16565b925050604062000e128682870162000ce8565b9150509250925092565b62000e2781620014ad565b82525050565b600062000e3a82620013e3565b62000e468185620013f9565b935062000e588185602086016200151f565b80840191505092915050565b62000e6f81620014f7565b82525050565b600062000e8282620013ee565b62000e8e818562001404565b935062000ea08185602086016200151f565b62000eab8162001584565b840191505092915050565b600062000ec5602e8362001404565b91507f596f752063616e7420756e7374616b6520696e2042696464696e67207065726960008301527f6f642068617320737461727465640000000000000000000000000000000000006020830152604082019050919050565b600062000f2d60268362001404565b91507f416464726573733a20696e73756666696369656e742062616c616e636520666f60008301527f722063616c6c00000000000000000000000000000000000000000000000000006020830152604082019050919050565b600062000f95602c8362001404565b91507f596f752063616e74207374616b6520696e2042696464696e6720706572696f6460008301527f20686173207374617274656400000000000000000000000000000000000000006020830152604082019050919050565b600062000ffd60198362001404565b91507f506c6561736520656e7465722076616c696420616d6f756e74000000000000006000830152602082019050919050565b60006200103f60288362001404565b91507f596f7520646f6e2774206861766520746865207065726d697373696f6e20746f60008301527f20646f20746861740000000000000000000000000000000000000000000000006020830152604082019050919050565b6000620010a760118362001404565b91507f4e465420646f65736e74206578697374730000000000000000000000000000006000830152602082019050919050565b6000620010e9601d8362001404565b91507f416464726573733a2063616c6c20746f206e6f6e2d636f6e74726163740000006000830152602082019050919050565b60006200112b602a8362001404565b91507f5361666545524332303a204552433230206f7065726174696f6e20646964206e60008301527f6f742073756363656564000000000000000000000000000000000000000000006020830152604082019050919050565b6200118f81620014ed565b82525050565b6000620011a3828462000e2d565b915081905092915050565b6000602082019050620011c5600083018462000e1c565b92915050565b6000606082019050620011e2600083018662000e1c565b620011f1602083018562000e1c565b62001200604083018462001184565b949350505050565b60006040820190506200121f600083018562000e1c565b6200122e602083018462001184565b9392505050565b60006080820190506200124c600083018762000e1c565b6200125b602083018662001184565b6200126a604083018562000e64565b62001279606083018462000e64565b95945050505050565b600060208201905081810360008301526200129e818462000e75565b905092915050565b60006020820190508181036000830152620012c18162000eb6565b9050919050565b60006020820190508181036000830152620012e38162000f1e565b9050919050565b60006020820190508181036000830152620013058162000f86565b9050919050565b60006020820190508181036000830152620013278162000fee565b9050919050565b60006020820190508181036000830152620013498162001030565b9050919050565b600060208201905081810360008301526200136b8162001098565b9050919050565b600060208201905081810360008301526200138d81620010da565b9050919050565b60006020820190508181036000830152620013af816200111c565b9050919050565b6000604082019050620013cd600083018562001184565b620013dc602083018462001184565b9392505050565b600081519050919050565b600081519050919050565b600081905092915050565b600082825260208201905092915050565b60006200142282620014ed565b91506200142f83620014ed565b9250827fffffffffffffffffffffffffffffffffffffffffffffffffffffffffffffffff0382111562001467576200146662001555565b5b828201905092915050565b60006200147f82620014ed565b91506200148c83620014ed565b925082821015620014a257620014a162001555565b5b828203905092915050565b6000620014ba82620014cd565b9050919050565b60008115159050919050565b600073ffffffffffffffffffffffffffffffffffffffff82169050919050565b6000819050919050565b600062001504826200150b565b9050919050565b60006200151882620014cd565b9050919050565b60005b838110156200153f57808201518184015260208101905062001522565b838111156200154f576000848401525b50505050565b7f4e487b7100000000000000000000000000000000000000000000000000000000600052601160045260246000fd5b6000601f19601f8301169050919050565b620015a081620014c1565b8114620015ac57600080fd5b50565b620015ba81620014ed565b8114620015c657600080fd5b5056fe60806040523480156200001157600080fd5b50604051620021d9380380620021d983398181016040528101906200003791906200045f565b33600660006101000a81548173ffffffffffffffffffffffffffffffffffffffff021916908373ffffffffffffffffffffffffffffffffffffffff1602179055506200008a84846200011660201b60201c565b81600760006101000a81548173ffffffffffffffffffffffffffffffffffffffff021916908373ffffffffffffffffffffffffffffffffffffffff16021790555080600860006101000a81548173ffffffffffffffffffffffffffffffffffffffff021916908373ffffffffffffffffffffffffffffffffffffffff1602179055505050505062000833565b3073ffffffffffffffffffffffffffffffffffffffff163373ffffffffffffffffffffffffffffffffffffffff1614806200019e5750600660009054906101000a900473ffffffffffffffffffffffffffffffffffffffff1673ffffffffffffffffffffffffffffffffffffffff163373ffffffffffffffffffffffffffffffffffffffff16145b620001e0576040517f08c379a0000000000000000000000000000000000000000000000000000000008152600401620001d79062000690565b60405180910390fd5b600073ffffffffffffffffffffffffffffffffffffffff168273ffffffffffffffffffffffffffffffffffffffff16141562000253576040517f08c379a00000000000000000000000000000000000000000000000000000000081526004016200024a906200066e565b60405180910390fd5b6000811162000299576040517f08c379a00000000000000000000000000000000000000000000000000000000081526004016200029090620006d4565b60405180910390fd5b6000600260008473ffffffffffffffffffffffffffffffffffffffff1673ffffffffffffffffffffffffffffffffffffffff16815260200190815260200160002054146200031e576040517f08c379a00000000000000000000000000000000000000000000000000000000081526004016200031590620006b2565b60405180910390fd5b6005829080600181540180825580915050600190039060005260206000200160009091909190916101000a81548173ffffffffffffffffffffffffffffffffffffffff021916908373ffffffffffffffffffffffffffffffffffffffff16021790555080600260008473ffffffffffffffffffffffffffffffffffffffff1673ffffffffffffffffffffffffffffffffffffffff1681526020019081526020016000208190555080600054620003d5919062000707565b6000819055507f40c340f65e17194d14ddddb073d3c9f888e3cb52b5aae0c6c7706b4fbc905fac82826040516200040e92919062000641565b60405180910390a15050565b6000815190506200042b81620007e5565b92915050565b6000815190506200044281620007ff565b92915050565b600081519050620004598162000819565b92915050565b600080600080608085870312156200047657600080fd5b600062000486878288016200041a565b9450506020620004998782880162000448565b9350506040620004ac8782880162000431565b9250506060620004bf8782880162000431565b91505092959194509250565b620004d68162000764565b82525050565b6000620004eb602c83620006f6565b91507f5061796d656e7453706c69747465723a206163636f756e74206973207468652060008301527f7a65726f206164647265737300000000000000000000000000000000000000006020830152604082019050919050565b600062000553600e83620006f6565b91507f6e6f7420417574686f72697a65640000000000000000000000000000000000006000830152602082019050919050565b600062000595602b83620006f6565b91507f5061796d656e7453706c69747465723a206163636f756e7420616c726561647960008301527f20686173207368617265730000000000000000000000000000000000000000006020830152604082019050919050565b6000620005fd601d83620006f6565b91507f5061796d656e7453706c69747465723a207368617265732061726520300000006000830152602082019050919050565b6200063b81620007ac565b82525050565b6000604082019050620006586000830185620004cb565b62000667602083018462000630565b9392505050565b600060208201905081810360008301526200068981620004dc565b9050919050565b60006020820190508181036000830152620006ab8162000544565b9050919050565b60006020820190508181036000830152620006cd8162000586565b9050919050565b60006020820190508181036000830152620006ef81620005ee565b9050919050565b600082825260208201905092915050565b60006200071482620007ac565b91506200072183620007ac565b9250827fffffffffffffffffffffffffffffffffffffffffffffffffffffffffffffffff03821115620007595762000758620007b6565b5b828201905092915050565b600062000771826200078c565b9050919050565b6000620007858262000764565b9050919050565b600073ffffffffffffffffffffffffffffffffffffffff82169050919050565b6000819050919050565b7f4e487b7100000000000000000000000000000000000000000000000000000000600052601160045260246000fd5b620007f08162000764565b8114620007fc57600080fd5b50565b6200080a8162000778565b81146200081657600080fd5b50565b6200082481620007ac565b81146200083057600080fd5b50565b61199680620008436000396000f3fe608060405234801561001057600080fd5b50600436106100a95760003560e01c80639852595c116100715780639852595c14610152578063a4795e9714610182578063ce7c2ac2146101a0578063e33b7de3146101d0578063ee99205c146101ee578063f2dd790c1461020c576100a9565b806318f9b023146100ae57806319165587146100ca5780633a98ef39146100e65780633e413bee146101045780638b83209b14610122575b600080fd5b6100c860048036038101906100c39190611081565b610228565b005b6100e460048036038101906100df9190611058565b61051b565b005b6100ee610870565b6040516100fb91906116ab565b60405180910390f35b61010c610879565b604051610119919061154e565b60405180910390f35b61013c600480360381019061013791906110e6565b61089f565b604051610149919061150a565b60405180910390f35b61016c60048036038101906101679190611058565b61090d565b60405161017991906116ab565b60405180910390f35b61018a610956565b604051610197919061154e565b60405180910390f35b6101ba60048036038101906101b59190611058565b61097c565b6040516101c791906116ab565b60405180910390f35b6101d86109c5565b6040516101e591906116ab565b60405180910390f35b6101f66109cf565b604051610203919061150a565b60405180910390f35b61022660048036038101906102219190611058565b6109f5565b005b3073ffffffffffffffffffffffffffffffffffffffff163373ffffffffffffffffffffffffffffffffffffffff1614806102af5750600660009054906101000a900473ffffffffffffffffffffffffffffffffffffffff1673ffffffffffffffffffffffffffffffffffffffff163373ffffffffffffffffffffffffffffffffffffffff16145b6102ee576040517f08c379a00000000000000000000000000000000000000000000000000000000081526004016102e59061160b565b60405180910390fd5b600073ffffffffffffffffffffffffffffffffffffffff168273ffffffffffffffffffffffffffffffffffffffff16141561035e576040517f08c379a00000000000000000000000000000000000000000000000000000000081526004016103559061158b565b60405180910390fd5b600081116103a1576040517f08c379a00000000000000000000000000000000000000000000000000000000081526004016103989061168b565b60405180910390fd5b6000600260008473ffffffffffffffffffffffffffffffffffffffff1673ffffffffffffffffffffffffffffffffffffffff1681526020019081526020016000205414610423576040517f08c379a000000000000000000000000000000000000000000000000000000000815260040161041a9061164b565b60405180910390fd5b6005829080600181540180825580915050600190039060005260206000200160009091909190916101000a81548173ffffffffffffffffffffffffffffffffffffffff021916908373ffffffffffffffffffffffffffffffffffffffff16021790555080600260008473ffffffffffffffffffffffffffffffffffffffff1673ffffffffffffffffffffffffffffffffffffffff16815260200190815260200160002081905550806000546104d891906116f8565b6000819055507f40c340f65e17194d14ddddb073d3c9f888e3cb52b5aae0c6c7706b4fbc905fac828260405161050f929190611525565b60405180910390a15050565b6000600260008373ffffffffffffffffffffffffffffffffffffffff1673ffffffffffffffffffffffffffffffffffffffff168152602001908152602001600020541161059d576040517f08c379a0000000000000000000000000000000000000000000000000000000008152600401610594906115ab565b60405180910390fd5b6000600154600760009054906101000a900473ffffffffffffffffffffffffffffffffffffffff1673ffffffffffffffffffffffffffffffffffffffff166370a08231306040518263ffffffff1660e01b81526004016105fd919061150a565b60206040518083038186803b15801561061557600080fd5b505afa158015610629573d6000803e3d6000fd5b505050506040513d601f19601f8201168201806040525081019061064d919061110f565b61065791906116f8565b90506000600360008473ffffffffffffffffffffffffffffffffffffffff1673ffffffffffffffffffffffffffffffffffffffff16815260200190815260200160002054600054600260008673ffffffffffffffffffffffffffffffffffffffff1673ffffffffffffffffffffffffffffffffffffffff16815260200190815260200160002054846106e9919061177f565b6106f3919061174e565b6106fd91906117d9565b90506000811415610743576040517f08c379a000000000000000000000000000000000000000000000000000000000815260040161073a906115eb565b60405180910390fd5b80600360008573ffffffffffffffffffffffffffffffffffffffff1673ffffffffffffffffffffffffffffffffffffffff1681526020019081526020016000205461078e91906116f8565b600360008573ffffffffffffffffffffffffffffffffffffffff1673ffffffffffffffffffffffffffffffffffffffff16815260200190815260200160002081905550806001546107df91906116f8565b6001819055506108328382600760009054906101000a900473ffffffffffffffffffffffffffffffffffffffff1673ffffffffffffffffffffffffffffffffffffffff16610d119092919063ffffffff16565b7fdf20fd1e76bc69d672e4814fafb2c449bba3a5369d8359adf9e05e6fde87b0568382604051610863929190611525565b60405180910390a1505050565b60008054905090565b600760009054906101000a900473ffffffffffffffffffffffffffffffffffffffff1681565b6000600582815481106108db577f4e487b7100000000000000000000000000000000000000000000000000000000600052603260045260246000fd5b9060005260206000200160009054906101000a900473ffffffffffffffffffffffffffffffffffffffff169050919050565b6000600360008373ffffffffffffffffffffffffffffffffffffffff1673ffffffffffffffffffffffffffffffffffffffff168152602001908152602001600020549050919050565b600860009054906101000a900473ffffffffffffffffffffffffffffffffffffffff1681565b6000600260008373ffffffffffffffffffffffffffffffffffffffff1673ffffffffffffffffffffffffffffffffffffffff168152602001908152602001600020549050919050565b6000600154905090565b600660009054906101000a900473ffffffffffffffffffffffffffffffffffffffff1681565b6000600260008373ffffffffffffffffffffffffffffffffffffffff1673ffffffffffffffffffffffffffffffffffffffff1681526020019081526020016000205411610a77576040517f08c379a0000000000000000000000000000000000000000000000000000000008152600401610a6e906115ab565b60405180910390fd5b6000600954600860009054906101000a900473ffffffffffffffffffffffffffffffffffffffff1673ffffffffffffffffffffffffffffffffffffffff166370a08231306040518263ffffffff1660e01b8152600401610ad7919061150a565b60206040518083038186803b158015610aef57600080fd5b505afa158015610b03573d6000803e3d6000fd5b505050506040513d601f19601f82011682018060405250810190610b27919061110f565b610b3191906116f8565b90506000600360008473ffffffffffffffffffffffffffffffffffffffff1673ffffffffffffffffffffffffffffffffffffffff16815260200190815260200160002054600054600260008673ffffffffffffffffffffffffffffffffffffffff1673ffffffffffffffffffffffffffffffffffffffff1681526020019081526020016000205484610bc3919061177f565b610bcd919061174e565b610bd791906117d9565b90506000811415610c1d576040517f08c379a0000000000000000000000000000000000000000000000000000000008152600401610c14906115eb565b60405180910390fd5b80600460008573ffffffffffffffffffffffffffffffffffffffff1673ffffffffffffffffffffffffffffffffffffffff16815260200190815260200160002054610c6891906116f8565b600460008573ffffffffffffffffffffffffffffffffffffffff1673ffffffffffffffffffffffffffffffffffffffff1681526020019081526020016000208190555080600154610cb991906116f8565b600981905550610d0c8382600860009054906101000a900473ffffffffffffffffffffffffffffffffffffffff1673ffffffffffffffffffffffffffffffffffffffff16610d119092919063ffffffff16565b505050565b610d928363a9059cbb60e01b8484604051602401610d30929190611525565b604051602081830303815290604052907bffffffffffffffffffffffffffffffffffffffffffffffffffffffff19166020820180517bffffffffffffffffffffffffffffffffffffffffffffffffffffffff8381831617835250505050610d97565b505050565b6000610df9826040518060400160405280602081526020017f5361666545524332303a206c6f772d6c6576656c2063616c6c206661696c65648152508573ffffffffffffffffffffffffffffffffffffffff16610e5e9092919063ffffffff16565b9050600081511115610e595780806020019051810190610e1991906110bd565b610e58576040517f08c379a0000000000000000000000000000000000000000000000000000000008152600401610e4f9061166b565b60405180910390fd5b5b505050565b6060610e6d8484600085610e76565b90509392505050565b606082471015610ebb576040517f08c379a0000000000000000000000000000000000000000000000000000000008152600401610eb2906115cb565b60405180910390fd5b610ec485610f8a565b610f03576040517f08c379a0000000000000000000000000000000000000000000000000000000008152600401610efa9061162b565b60405180910390fd5b6000808673ffffffffffffffffffffffffffffffffffffffff168587604051610f2c91906114f3565b60006040518083038185875af1925050503d8060008114610f69576040519150601f19603f3d011682016040523d82523d6000602084013e610f6e565b606091505b5091509150610f7e828286610f9d565b92505050949350505050565b600080823b905060008111915050919050565b60608315610fad57829050610ffd565b600083511115610fc05782518084602001fd5b816040517f08c379a0000000000000000000000000000000000000000000000000000000008152600401610ff49190611569565b60405180910390fd5b9392505050565b6000813590506110138161191b565b92915050565b60008151905061102881611932565b92915050565b60008135905061103d81611949565b92915050565b60008151905061105281611949565b92915050565b60006020828403121561106a57600080fd5b600061107884828501611004565b91505092915050565b6000806040838503121561109457600080fd5b60006110a285828601611004565b92505060206110b38582860161102e565b9150509250929050565b6000602082840312156110cf57600080fd5b60006110dd84828501611019565b91505092915050565b6000602082840312156110f857600080fd5b60006111068482850161102e565b91505092915050565b60006020828403121561112157600080fd5b600061112f84828501611043565b91505092915050565b6111418161180d565b82525050565b6000611152826116c6565b61115c81856116dc565b935061116c818560208601611879565b80840191505092915050565b61118181611855565b82525050565b6000611192826116d1565b61119c81856116e7565b93506111ac818560208601611879565b6111b58161190a565b840191505092915050565b60006111cd602c836116e7565b91507f5061796d656e7453706c69747465723a206163636f756e74206973207468652060008301527f7a65726f206164647265737300000000000000000000000000000000000000006020830152604082019050919050565b60006112336026836116e7565b91507f5061796d656e7453706c69747465723a206163636f756e7420686173206e6f2060008301527f73686172657300000000000000000000000000000000000000000000000000006020830152604082019050919050565b60006112996026836116e7565b91507f416464726573733a20696e73756666696369656e742062616c616e636520666f60008301527f722063616c6c00000000000000000000000000000000000000000000000000006020830152604082019050919050565b60006112ff602b836116e7565b91507f5061796d656e7453706c69747465723a206163636f756e74206973206e6f742060008301527f647565207061796d656e740000000000000000000000000000000000000000006020830152604082019050919050565b6000611365600e836116e7565b91507f6e6f7420417574686f72697a65640000000000000000000000000000000000006000830152602082019050919050565b60006113a5601d836116e7565b91507f416464726573733a2063616c6c20746f206e6f6e2d636f6e74726163740000006000830152602082019050919050565b60006113e5602b836116e7565b91507f5061796d656e7453706c69747465723a206163636f756e7420616c726561647960008301527f20686173207368617265730000000000000000000000000000000000000000006020830152604082019050919050565b600061144b602a836116e7565b91507f5361666545524332303a204552433230206f7065726174696f6e20646964206e60008301527f6f742073756363656564000000000000000000000000000000000000000000006020830152604082019050919050565b60006114b1601d836116e7565b91507f5061796d656e7453706c69747465723a207368617265732061726520300000006000830152602082019050919050565b6114ed8161184b565b82525050565b60006114ff8284611147565b915081905092915050565b600060208201905061151f6000830184611138565b92915050565b600060408201905061153a6000830185611138565b61154760208301846114e4565b9392505050565b60006020820190506115636000830184611178565b92915050565b600060208201905081810360008301526115838184611187565b905092915050565b600060208201905081810360008301526115a4816111c0565b9050919050565b600060208201905081810360008301526115c481611226565b9050919050565b600060208201905081810360008301526115e48161128c565b9050919050565b60006020820190508181036000830152611604816112f2565b9050919050565b6000602082019050818103600083015261162481611358565b9050919050565b6000602082019050818103600083015261164481611398565b9050919050565b60006020820190508181036000830152611664816113d8565b9050919050565b600060208201905081810360008301526116848161143e565b9050919050565b600060208201905081810360008301526116a4816114a4565b9050919050565b60006020820190506116c060008301846114e4565b92915050565b600081519050919050565b600081519050919050565b600081905092915050565b600082825260208201905092915050565b60006117038261184b565b915061170e8361184b565b9250827fffffffffffffffffffffffffffffffffffffffffffffffffffffffffffffffff03821115611743576117426118ac565b5b828201905092915050565b60006117598261184b565b91506117648361184b565b925082611774576117736118db565b5b828204905092915050565b600061178a8261184b565b91506117958361184b565b9250817fffffffffffffffffffffffffffffffffffffffffffffffffffffffffffffffff04831182151516156117ce576117cd6118ac565b5b828202905092915050565b60006117e48261184b565b91506117ef8361184b565b925082821015611802576118016118ac565b5b828203905092915050565b60006118188261182b565b9050919050565b60008115159050919050565b600073ffffffffffffffffffffffffffffffffffffffff82169050919050565b6000819050919050565b600061186082611867565b9050919050565b60006118728261182b565b9050919050565b60005b8381101561189757808201518184015260208101905061187c565b838111156118a6576000848401525b50505050565b7f4e487b7100000000000000000000000000000000000000000000000000000000600052601160045260246000fd5b7f4e487b7100000000000000000000000000000000000000000000000000000000600052601260045260246000fd5b6000601f19601f8301169050919050565b6119248161180d565b811461192f57600080fd5b50565b61193b8161181f565b811461194657600080fd5b50565b6119528161184b565b811461195d57600080fd5b5056fea264697066735822122017145548f12fdf9e0f4b92992552fd61ad8f4087f61303e11e0c25f887a9143964736f6c63430008000033a264697066735822122068107bc8a1b4bb4fe0f9bb4cc35ae132a4d8682dbf32066dee91c448bec625ee64736f6c63430008000033",
  "immutableReferences": {},
  "source": "// SPDX-License-Identifier: MIT\npragma solidity ^0.8.0;\n\nimport '../node_modules/@openzeppelin/contracts/token/ERC20/utils/SafeERC20.sol';\nimport '../node_modules/@openzeppelin/contracts/token/ERC721/extensions/IERC721Metadata.sol';\nimport '../node_modules/@openzeppelin/contracts/token/ERC20/IERC20.sol';\nimport '../node_modules/@openzeppelin/contracts/finance/PaymentSplitter.sol';\n\n\n/**\n * @notice - This is the NFT contract\n */\ncontract TwentyFourNFTStaking {\n    using SafeERC20 for IERC20;\n    IERC20 usdc;\n    IERC20 Matic;\n    address nftContract;\n\n    struct stakeDetails {\n        uint endTime; //start+259200(3 days)\n        mapping(address => uint256) stakedAmount;\n        uint totalStakes;\n        uint exists;\n        PaymentSplitter paymentSplitter;\n    }\n    mapping (uint=>stakeDetails) idToStake;\n    \n\n    constructor(address _usdc, address _matic, address _nftContract){\n        usdc = IERC20(_usdc);\n        Matic = IERC20(_matic);\n        nftContract = _nftContract;\n    }\n\n    function getPaymentSplitter(uint _tokenId) external view returns(address) {\n        return address(idToStake[_tokenId].paymentSplitter);\n    }\n\n    function stake(uint _tokenId,uint amount, bool deFi) public{\n        require(idToStake[_tokenId].exists == 1,'NFT doesnt exists');\n        require(idToStake[_tokenId].endTime<block.timestamp,'You cant stake in Bidding period has started');\n        require(amount>0,'Please enter valid amount');\n        if(idToStake[_tokenId].totalStakes == 0){\n            idToStake[_tokenId].paymentSplitter = (new PaymentSplitter(msg.sender, amount, usdc,Matic));\n        }\n        idToStake[_tokenId].paymentSplitter.addPayee(msg.sender,amount);\n        usdc.safeTransferFrom(msg.sender, address(idToStake[_tokenId].paymentSplitter), amount);\n        idToStake[_tokenId].stakedAmount[msg.sender] +=amount;\n        idToStake[_tokenId].totalStakes+=1;\n    }\n\n\n    function unstake(uint _tokenId, uint amount) public {\n        require(idToStake[_tokenId].endTime<block.timestamp,'You cant unstake in Bidding period has started');\n        require(idToStake[_tokenId].stakedAmount[msg.sender]>= amount,'Please enter valid amount');\n        idToStake[_tokenId].paymentSplitter.release(msg.sender);\n        idToStake[_tokenId].stakedAmount[msg.sender] -=amount;\n    }\n\n    function startStakePeriod(uint _tokenId) external onlyContract(){\n        idToStake[_tokenId].endTime = block.timestamp+259200;\n        idToStake[_tokenId].exists = 1;\n    }\n\n    function revokeNFTstake(uint _tokenId) external onlyContract(){\n        delete idToStake[_tokenId];\n    }\n\n    function getStakeDetails(uint _tokenId) external view returns (uint,uint){\n        require(idToStake[_tokenId].exists == 1,'NFT doesnt exists');\n        return (\n            idToStake[_tokenId].totalStakes,\n            idToStake[_tokenId].endTime\n        );\n    }\n\n    modifier onlyContract (){\n        require(msg.sender == nftContract,\"You don't have the permission to do that\");\n        _;\n    }\n}",
  "sourcePath": "/home/oem/git/24nft/contracts/staking.sol",
  "compiler": {
    "name": "solc",
    "version": "0.8.0+commit.c7dfd78e.Emscripten.clang"
  },
  "schemaVersion": "3.4.1",
  "updatedAt": "2021-07-10T16:38:40.940Z",
  "devdoc": {
    "kind": "dev",
    "methods": {},
    "version": 1
  },
  "userdoc": {
    "kind": "user",
    "methods": {},
    "notice": "- This is the NFT contract",
    "version": 1
  }
}